{
  "abi": [
    {
      "inputs": [
        {
          "internalType": "address",
          "name": "_addressProvider",
          "type": "address"
        },
        {
          "internalType": "contract ISwapRouter",
          "name": "_swapRouter",
          "type": "address"
        },
        {
          "internalType": "address",
          "name": "_WETHChainlink",
          "type": "address"
        },
        {
          "internalType": "address",
          "name": "_ERC20WETH",
          "type": "address"
        },
        {
          "internalType": "address",
          "name": "_ERC20USDC",
          "type": "address"
        },
        {
          "internalType": "address",
          "name": "_AAVE_POOL_POLYGON",
          "type": "address"
        }
      ],
      "stateMutability": "nonpayable",
      "type": "constructor"
    },
    {
      "anonymous": false,
      "inputs": [
        {
          "indexed": true,
          "internalType": "address",
          "name": "previousOwner",
          "type": "address"
        },
        {
          "indexed": true,
          "internalType": "address",
          "name": "newOwner",
          "type": "address"
        }
      ],
      "name": "OwnershipTransferred",
      "type": "event"
    },
    {
      "inputs": [],
      "name": "AAVE_POOL_POLYGON",
      "outputs": [
        {
          "internalType": "address",
          "name": "",
          "type": "address"
        }
      ],
      "stateMutability": "view",
      "type": "function"
    },
    {
      "inputs": [],
      "name": "ADDRESSES_PROVIDER",
      "outputs": [
        {
          "internalType": "contract IPoolAddressesProvider",
          "name": "",
          "type": "address"
        }
      ],
      "stateMutability": "view",
      "type": "function"
    },
    {
      "inputs": [],
      "name": "ERC20_TO_BORROW_POLYGON",
      "outputs": [
        {
          "internalType": "address",
          "name": "",
          "type": "address"
        }
      ],
      "stateMutability": "view",
      "type": "function"
    },
    {
      "inputs": [],
      "name": "ERC20_TO_DEPOSIT_POLYGON",
      "outputs": [
        {
          "internalType": "address",
          "name": "",
          "type": "address"
        }
      ],
      "stateMutability": "view",
      "type": "function"
    },
    {
      "inputs": [],
      "name": "POOL",
      "outputs": [
        {
          "internalType": "contract IPool",
          "name": "",
          "type": "address"
        }
      ],
      "stateMutability": "view",
      "type": "function"
    },
    {
      "inputs": [],
      "name": "PRAXIS_ERC20",
      "outputs": [
        {
          "internalType": "address",
          "name": "",
          "type": "address"
        }
      ],
      "stateMutability": "view",
      "type": "function"
    },
    {
      "inputs": [],
      "name": "deployERC20",
      "outputs": [
        {
          "internalType": "address",
          "name": "_praxisERC20",
          "type": "address"
        }
      ],
      "stateMutability": "nonpayable",
      "type": "function"
    },
    {
      "inputs": [
        {
          "internalType": "address",
          "name": "asset",
          "type": "address"
        },
        {
          "internalType": "uint256",
          "name": "amount",
          "type": "uint256"
        },
        {
          "internalType": "uint256",
          "name": "premium",
          "type": "uint256"
        },
        {
          "internalType": "address",
          "name": "initiator",
          "type": "address"
        },
        {
          "internalType": "bytes",
          "name": "params",
          "type": "bytes"
        }
      ],
      "name": "executeOperation",
      "outputs": [
        {
          "internalType": "bool",
          "name": "",
          "type": "bool"
        }
      ],
      "stateMutability": "nonpayable",
      "type": "function"
    },
    {
      "inputs": [],
      "name": "getLatestPrice",
      "outputs": [
        {
          "internalType": "int256",
          "name": "",
          "type": "int256"
        }
      ],
      "stateMutability": "view",
      "type": "function"
    },
    {
      "inputs": [],
      "name": "get_CONTRACT_VALUE",
      "outputs": [
        {
          "internalType": "uint256",
          "name": "",
          "type": "uint256"
        }
      ],
      "stateMutability": "nonpayable",
      "type": "function"
    },
    {
      "inputs": [
        {
          "internalType": "address",
          "name": "user",
          "type": "address"
        }
      ],
      "name": "get_ETH3XUP_Positions",
      "outputs": [
        {
          "components": [
            {
              "internalType": "address",
              "name": "owner",
              "type": "address"
            },
            {
              "internalType": "uint256",
              "name": "amountInEth",
              "type": "uint256"
            },
            {
              "internalType": "uint256",
              "name": "mintedTime",
              "type": "uint256"
            },
            {
              "internalType": "uint256",
              "name": "ethPrice",
              "type": "uint256"
            },
            {
              "internalType": "uint256",
              "name": "mintedTokens",
              "type": "uint256"
            },
            {
              "internalType": "bool",
              "name": "ifClosed",
              "type": "bool"
            },
            {
              "internalType": "uint256",
              "name": "positionValue",
              "type": "uint256"
            }
          ],
          "internalType": "struct praxisFACTORY.Position[]",
          "name": "array_positions",
          "type": "tuple[]"
        }
      ],
      "stateMutability": "view",
      "type": "function"
    },
    {
      "inputs": [],
      "name": "get_USDC_contract_balance",
      "outputs": [
        {
          "internalType": "uint256",
          "name": "balance",
          "type": "uint256"
        }
      ],
      "stateMutability": "nonpayable",
      "type": "function"
    },
    {
      "inputs": [],
      "name": "get_WETH_contract_balance",
      "outputs": [
        {
          "internalType": "uint256",
          "name": "balance",
          "type": "uint256"
        }
      ],
      "stateMutability": "nonpayable",
      "type": "function"
    },
    {
      "inputs": [],
      "name": "give_Allowance_USDC",
      "outputs": [],
      "stateMutability": "nonpayable",
      "type": "function"
    },
    {
      "inputs": [],
      "name": "give_Allowance_WETH",
      "outputs": [],
      "stateMutability": "nonpayable",
      "type": "function"
    },
    {
      "inputs": [
        {
          "internalType": "uint256",
          "name": "amount",
          "type": "uint256"
        }
      ],
      "name": "initiate_ETH3XUP",
      "outputs": [],
      "stateMutability": "nonpayable",
      "type": "function"
    },
    {
      "inputs": [],
      "name": "owner",
      "outputs": [
        {
          "internalType": "address",
          "name": "",
          "type": "address"
        }
      ],
      "stateMutability": "view",
      "type": "function"
    },
    {
      "inputs": [],
      "name": "poolFee",
      "outputs": [
        {
          "internalType": "uint24",
          "name": "",
          "type": "uint24"
        }
      ],
      "stateMutability": "view",
      "type": "function"
    },
    {
      "inputs": [
        {
          "internalType": "address",
          "name": "_user",
          "type": "address"
        },
        {
          "internalType": "uint256",
          "name": "_amount",
          "type": "uint256"
        },
        {
          "internalType": "uint256",
          "name": "PositionIndex",
          "type": "uint256"
        },
        {
          "internalType": "uint256",
          "name": "USDC_Decimals",
          "type": "uint256"
        }
      ],
      "name": "redeem_ETHUP3X",
      "outputs": [
        {
          "internalType": "bool",
          "name": "",
          "type": "bool"
        }
      ],
      "stateMutability": "nonpayable",
      "type": "function"
    },
    {
      "inputs": [],
      "name": "renounceOwnership",
      "outputs": [],
      "stateMutability": "nonpayable",
      "type": "function"
    },
    {
      "inputs": [
        {
          "internalType": "address",
          "name": "bhai",
          "type": "address"
        }
      ],
      "name": "setPraxisERC20",
      "outputs": [],
      "stateMutability": "nonpayable",
      "type": "function"
    },
    {
      "inputs": [],
      "name": "swapRouter",
      "outputs": [
        {
          "internalType": "contract ISwapRouter",
          "name": "",
          "type": "address"
        }
      ],
      "stateMutability": "view",
      "type": "function"
    },
    {
      "inputs": [
        {
          "internalType": "address",
          "name": "newOwner",
          "type": "address"
        }
      ],
      "name": "transferOwnership",
      "outputs": [],
      "stateMutability": "nonpayable",
      "type": "function"
    },
    {
      "stateMutability": "payable",
      "type": "receive"
    }
  ],
  "bytecode": {
    "object": "0x60e0604052670de0b6b3a76400006008553480156200001d57600080fd5b5060405162002fe138038062002fe183398101604081905262000040916200019a565b85806001600160a01b03166080816001600160a01b031681525050806001600160a01b031663026b1d5f6040518163ffffffff1660e01b8152600401602060405180830381865afa1580156200009a573d6000803e3d6000fd5b505050506040513d601f19601f82011682018060405250810190620000c091906200022e565b6001600160a01b031660a05250620000d83362000131565b6001600160a01b0394851660c052600180549486166001600160a01b0319958616179055600280549386169385169390931790925560038054918516918416919091179055600480549190931691161790555062000255565b600080546001600160a01b038381166001600160a01b0319831681178455604051919092169283917f8be0079c531659141344cd1fd0a4f28419497f9722a3daafe3b4186f6b6457e09190a35050565b6001600160a01b03811681146200019757600080fd5b50565b60008060008060008060c08789031215620001b457600080fd5b8651620001c18162000181565b6020880151909650620001d48162000181565b6040880151909550620001e78162000181565b6060880151909450620001fa8162000181565b60808801519093506200020d8162000181565b60a0880151909250620002208162000181565b809150509295509295509295565b6000602082840312156200024157600080fd5b81516200024e8162000181565b9392505050565b60805160a05160c051612d40620002a160003960008181610411015281816113520152818161141e01526114a301526000818161030d015261082d015260006101800152612d406000f3fe6080604052600436106200015f5760003560e01c80637ec64d6c11620000c5578063c31c9c071162000078578063c31c9c0714620003fd578063c7cce3721462000433578063d5155758146200044b578063e691c69a1462000463578063f24958061462000488578063f2fde38b14620004aa57600080fd5b80637ec64d6c14620003475780638da5cb5b146200035f5780638e15f473146200037f578063a37f11e81462000397578063a438520914620003b9578063bc3e142c14620003db57600080fd5b80631b11d0ff116200011e5780631b11d0ff146200025057806324b1ea0714620002865780636034241814620002ad578063715018a614620002e15780637535d24614620002f95780637bfe6595146200032f57600080fd5b80630542975c146200016c57806308674a5b14620001bf578063089fe6aa14620001d957806312b0927f14620002065780631a4fe8f0146200022b57600080fd5b366200016757005b600080fd5b3480156200017957600080fd5b50620001a27f000000000000000000000000000000000000000000000000000000000000000081565b6040516001600160a01b0390911681526020015b60405180910390f35b348015620001cc57600080fd5b50620001d7620004cf565b005b348015620001e657600080fd5b50620001f1610bb881565b60405162ffffff9091168152602001620001b6565b3480156200021357600080fd5b50620001d76200022536600462001964565b6200055e565b3480156200023857600080fd5b50620001d76200024a3660046200199b565b62000678565b3480156200025d57600080fd5b50620002756200026f366004620019c0565b620006a4565b6040519015158152602001620001b6565b3480156200029357600080fd5b506200029e620008c2565b604051908152602001620001b6565b348015620002ba57600080fd5b50620002d2620002cc3660046200199b565b62000938565b604051620001b6919062001a6f565b348015620002ee57600080fd5b50620001d7620009fd565b3480156200030657600080fd5b50620001a27f000000000000000000000000000000000000000000000000000000000000000081565b3480156200033c57600080fd5b506200029e62000a15565b3480156200035457600080fd5b506200029e62000a47565b3480156200036c57600080fd5b506000546001600160a01b0316620001a2565b3480156200038c57600080fd5b506200029e62000a69565b348015620003a457600080fd5b50600354620001a2906001600160a01b031681565b348015620003c657600080fd5b50600254620001a2906001600160a01b031681565b348015620003e857600080fd5b50600454620001a2906001600160a01b031681565b3480156200040a57600080fd5b50620001a27f000000000000000000000000000000000000000000000000000000000000000081565b3480156200044057600080fd5b50620001d762000af1565b3480156200045857600080fd5b50620001a262000b3c565b3480156200047057600080fd5b50620002756200048236600462001afe565b62000bcc565b3480156200049557600080fd5b50600554620001a2906001600160a01b031681565b348015620004b757600080fd5b50620001d7620004c93660046200199b565b62001101565b620004d96200117d565b6002546004805460405163095ea7b360e01b81526001600160a01b039182169281019290925260001960248301529091169063095ea7b3906044015b6020604051808303816000875af115801562000535573d6000803e3d6000fd5b505050506040513d601f19601f820116820180604052508101906200055b919062001b3a565b50565b60006040518060e00160405280336001600160a01b031681526020018381526020014281526020016200059062000a69565b8152600060208083018290526040808401839052606090930182905233825260068152828220600790915291902054815492935083928110620005d757620005d762001b5e565b600091825260209182902083516007929092020180546001600160a01b0319166001600160a01b039283161781559183015160018301556040830151600280840191909155606084015160038401556080840151600484015560a084015160058401805460ff191691151591909117905560c090930151600690920191909155815462000674929116906200066e90859062001b8a565b620011d9565b5050565b620006826200117d565b600580546001600160a01b0319166001600160a01b0392909216919091179055565b32600090815260066020908152604080832060079092528220548154839291908110620006d557620006d562001b5e565b60009182526020808320600792830201600101543284529190526040822080549193509091620007058362001bac565b90915550506002546004546001600160a01b039182169163095ea7b391166200073084600362001b8a565b6040516001600160e01b031960e085901b1681526001600160a01b03909216600483015260248201526044016020604051808303816000875af11580156200077c573d6000803e3d6000fd5b505050506040513d601f19601f82011682018060405250810190620007a2919062001b3a565b50620007bb30620007b583600362001b8a565b62001267565b6000620007ca82600262001b8a565b9050620007d83082620012e7565b600062000806620007eb84600262001b8a565b60035460025485916001600160a01b0390811691166200133b565b9050600062000816898b62001bc8565b60405163095ea7b360e01b81526001600160a01b037f00000000000000000000000000000000000000000000000000000000000000008116600483015260248201839052919250908c169063095ea7b3906044016020604051808303816000875af11580156200088a573d6000803e3d6000fd5b505050506040513d601f19601f82011682018060405250810190620008b0919062001b3a565b5060019b9a5050505050505050505050565b6003546040516370a0823160e01b81523060048201526000916001600160a01b0316906370a08231906024015b602060405180830381865afa1580156200090d573d6000803e3d6000fd5b505050506040513d601f19601f8201168201806040525081019062000933919062001be3565b905090565b6001600160a01b0381166000908152600660209081526040808320805482518185028101850190935280835260609492939192909184015b82821015620009f25760008481526020908190206040805160e0810182526007860290920180546001600160a01b03168352600180820154848601526002820154928401929092526003810154606084015260048101546080840152600581015460ff16151560a08401526006015460c0830152908352909201910162000970565b505050509050919050565b62000a076200117d565b62000a136000620014eb565b565b6002546040516370a0823160e01b81523060048201526000916001600160a01b0316906370a0823190602401620008ef565b600062000a536200153b565b62000a5d620015bc565b62000933919062001bfd565b600080600160009054906101000a90046001600160a01b03166001600160a01b031663feaf968c6040518163ffffffff1660e01b815260040160a060405180830381865afa15801562000ac0573d6000803e3d6000fd5b505050506040513d601f19601f8201168201806040525081019062000ae6919062001c32565b509195945050505050565b62000afb6200117d565b6003546004805460405163095ea7b360e01b81526001600160a01b039182169281019290925260001960248301529091169063095ea7b39060440162000515565b600062000b486200117d565b60006040518060200162000b5c9062001956565b818103601f199081018352601f9091011660408190526002546003546bffffffffffffffffffffffff19606092831b81166020850152911b166034820152909150600090604801604051602081830303815290604052805190602001209050808251602084016000f59250505090565b6005546040516370a0823160e01b81526001600160a01b03868116600483015260009283929116906370a0823190602401602060405180830381865afa15801562000c1b573d6000803e3d6000fd5b505050506040513d601f19601f8201168201806040525081019062000c41919062001be3565b90508085111562000c8c5760405162461bcd60e51b815260206004820152601060248201526f4e4f545f454e4f5547485f434f494e5360801b60448201526064015b60405180910390fd5b600554604080516318160ddd60e01b815290516000926001600160a01b0316916318160ddd9160048083019260209291908290030181865afa15801562000cd7573d6000803e3d6000fd5b505050506040513d601f19601f8201168201806040525081019062000cfd919062001be3565b9050600062000d0d828862001c87565b9050600062000d1b62000a69565b9050600062000d29620015bc565b62000d35908462001b8a565b905062000d43828262001c87565b905062000d5981670de0b6b3a764000062001b8a565b9050600062000d676200153b565b62000d73908562001b8a565b905062000d856305f5e1008262001c87565b905062000d93888262001b8a565b60048054600254604051631a4ca37b60e21b81526001600160a01b03918216938101939093526024830186905233604484015292935091909116906369328dec906064016020604051808303816000875af115801562000df7573d6000803e3d6000fd5b505050506040513d601f19601f8201168201806040525081019062000e1d919062001be3565b5060025460035462000e4091839185916001600160a01b0390811691166200133b565b506004805460035460405163573ade8160e01b81526001600160a01b03918216938101939093526024830184905260026044840152306064840152169063573ade81906084016020604051808303816000875af115801562000ea6573d6000803e3d6000fd5b505050506040513d601f19601f8201168201806040525081019062000ecc919062001be3565b506001600160a01b038b1660009081526006602052604090208054600191908b90811062000efe5762000efe62001b5e565b600091825260209091206007909102016005908101805460ff19169215159290921790915554604051632770a7eb60e21b81526001600160a01b038d81166004830152602482018d905290911690639dc29fac90604401600060405180830381600087803b15801562000f7057600080fd5b505af115801562000f85573d6000803e3d6000fd5b50506003546040516370a0823160e01b8152306004820152600093506001600160a01b0390911691506370a0823190602401602060405180830381865afa15801562000fd5573d6000803e3d6000fd5b505050506040513d601f19601f8201168201806040525081019062000ffb919062001be3565b60035460405163a9059cbb60e01b81526001600160a01b038f81166004830152602482018490529293506000929091169063a9059cbb906044016020604051808303816000875af115801562001055573d6000803e3d6000fd5b505050506040513d601f19601f820116820180604052508101906200107b919062001b3a565b9050806200108857600080fd5b600554604051632770a7eb60e21b81526001600160a01b038f81166004830152602482018f905290911690639dc29fac90604401600060405180830381600087803b158015620010d757600080fd5b505af1158015620010ec573d6000803e3d6000fd5b50929f9e505050505050505050505050505050565b6200110b6200117d565b6001600160a01b038116620011725760405162461bcd60e51b815260206004820152602660248201527f4f776e61626c653a206e6577206f776e657220697320746865207a65726f206160448201526564647265737360d01b606482015260840162000c83565b6200055b81620014eb565b6000546001600160a01b0316331462000a135760405162461bcd60e51b815260206004820181905260248201527f4f776e61626c653a2063616c6c6572206973206e6f7420746865206f776e6572604482015260640162000c83565b6040805160208101825260008082526004805493516310ac2ddf60e21b8152309487948794909390926001600160a01b03909216916342b0b77c916200122a91899189918991899189910162001cdd565b600060405180830381600087803b1580156200124557600080fd5b505af11580156200125a573d6000803e3d6000fd5b5050505050505050505050565b6004805460025460405163617ba03760e01b81526001600160a01b039182169381019390935260248301849052848116604484015260006064840152169063617ba037906084015b600060405180830381600087803b158015620012ca57600080fd5b505af1158015620012df573d6000803e3d6000fd5b505050505050565b6004805460035460405163a415bcad60e01b81526001600160a01b03918216938101939093526024830184905260006044840181905260648401528481166084840152169063a415bcad9060a401620012af565b60006200134b833330876200163d565b6200137a837f000000000000000000000000000000000000000000000000000000000000000060001962001749565b60408051610100810182526001600160a01b03858116825284811660208301908152610bb88385019081523360608501908152426080860190815260a086018c815260c087018c8152600060e089019081529851631b67c43360e31b8152885188166004820152955187166024870152935162ffffff1660448601529151851660648501525160848401525160a48301525160c48201529251811660e484015290917f00000000000000000000000000000000000000000000000000000000000000009091169063db3e219890610104016020604051808303816000875af11580156200146b573d6000803e3d6000fd5b505050506040513d601f19601f8201168201806040525081019062001491919062001be3565b915084821015620014e257620014ca847f0000000000000000000000000000000000000000000000000000000000000000600062001749565b620014e28433620014dc858962001bfd565b62001853565b50949350505050565b600080546001600160a01b038381166001600160a01b0319831681178455604051919092169283917f8be0079c531659141344cd1fd0a4f28419497f9722a3daafe3b4186f6b6457e09190a35050565b60048054604051632fe4a15f60e21b8152309281019290925260009182916001600160a01b03169063bf92857c9060240160c060405180830381865afa1580156200158a573d6000803e3d6000fd5b505050506040513d601f19601f82011682018060405250810190620015b0919062001d3f565b50929695505050505050565b60048054604051632fe4a15f60e21b8152309281019290925260009182916001600160a01b03169063bf92857c9060240160c060405180830381865afa1580156200160b573d6000803e3d6000fd5b505050506040513d601f19601f8201168201806040525081019062001631919062001d3f565b50939695505050505050565b604080516001600160a01b0385811660248301528481166044830152606480830185905283518084039091018152608490920183526020820180516001600160e01b03166323b872dd60e01b1790529151600092839290881691620016a3919062001d8a565b6000604051808303816000865af19150503d8060008114620016e2576040519150601f19603f3d011682016040523d82523d6000602084013e620016e7565b606091505b5091509150818015620017155750805115806200171557508080602001905181019062001715919062001b3a565b620012df5760405162461bcd60e51b815260206004820152600360248201526229aa2360e91b604482015260640162000c83565b604080516001600160a01b038481166024830152604480830185905283518084039091018152606490920183526020820180516001600160e01b031663095ea7b360e01b1790529151600092839290871691620017a7919062001d8a565b6000604051808303816000865af19150503d8060008114620017e6576040519150601f19603f3d011682016040523d82523d6000602084013e620017eb565b606091505b5091509150818015620018195750805115806200181957508080602001905181019062001819919062001b3a565b6200184c5760405162461bcd60e51b8152602060048201526002602482015261534160f01b604482015260640162000c83565b5050505050565b604080516001600160a01b038481166024830152604480830185905283518084039091018152606490920183526020820180516001600160e01b031663a9059cbb60e01b1790529151600092839290871691620018b1919062001d8a565b6000604051808303816000865af19150503d8060008114620018f0576040519150601f19603f3d011682016040523d82523d6000602084013e620018f5565b606091505b5091509150818015620019235750805115806200192357508080602001905181019062001923919062001b3a565b6200184c5760405162461bcd60e51b815260206004820152600260248201526114d560f21b604482015260640162000c83565b610f628062001da983390190565b6000602082840312156200197757600080fd5b5035919050565b80356001600160a01b03811681146200199657600080fd5b919050565b600060208284031215620019ae57600080fd5b620019b9826200197e565b9392505050565b60008060008060008060a08789031215620019da57600080fd5b620019e5876200197e565b9550602087013594506040870135935062001a03606088016200197e565b9250608087013567ffffffffffffffff8082111562001a2157600080fd5b818901915089601f83011262001a3657600080fd5b81358181111562001a4657600080fd5b8a602082850101111562001a5957600080fd5b6020830194508093505050509295509295509295565b602080825282518282018190526000919060409081850190868401855b8281101562001af157815180516001600160a01b0316855286810151878601528581015186860152606080820151908601526080808201519086015260a08082015115159086015260c0908101519085015260e0909301929085019060010162001a8c565b5091979650505050505050565b6000806000806080858703121562001b1557600080fd5b62001b20856200197e565b966020860135965060408601359560600135945092505050565b60006020828403121562001b4d57600080fd5b81518015158114620019b957600080fd5b634e487b7160e01b600052603260045260246000fd5b634e487b7160e01b600052601160045260246000fd5b600081600019048311821515161562001ba75762001ba762001b74565b500290565b60006001820162001bc15762001bc162001b74565b5060010190565b6000821982111562001bde5762001bde62001b74565b500190565b60006020828403121562001bf657600080fd5b5051919050565b60008282101562001c125762001c1262001b74565b500390565b805169ffffffffffffffffffff811681146200199657600080fd5b600080600080600060a0868803121562001c4b57600080fd5b62001c568662001c17565b945060208601519350604086015192506060860151915062001c7b6080870162001c17565b90509295509295909350565b60008262001ca557634e487b7160e01b600052601260045260246000fd5b500490565b60005b8381101562001cc757818101518382015260200162001cad565b8381111562001cd7576000848401525b50505050565b600060018060a01b03808816835280871660208401525084604083015260a0606083015283518060a084015262001d1c8160c085016020880162001caa565b61ffff93909316608083015250601f91909101601f19160160c001949350505050565b60008060008060008060c0878903121562001d5957600080fd5b865195506020870151945060408701519350606087015192506080870151915060a087015190509295509295509295565b6000825162001d9e81846020870162001caa565b919091019291505056fe60a06040523480156200001157600080fd5b5060405162000f6238038062000f62833981016040819052620000349162000114565b6040518060400160405280600681526020016550524158495360d01b815250604051806040016040528060038152602001620a0a4b60eb1b8152508160039081620000809190620001eb565b5060046200008f8282620001eb565b505050620000ac620000a6620000be60201b60201c565b620000c2565b6001600160a01b0316608052620002b7565b3390565b600580546001600160a01b038381166001600160a01b0319831681179093556040519116919082907f8be0079c531659141344cd1fd0a4f28419497f9722a3daafe3b4186f6b6457e090600090a35050565b6000602082840312156200012757600080fd5b81516001600160a01b03811681146200013f57600080fd5b9392505050565b634e487b7160e01b600052604160045260246000fd5b600181811c908216806200017157607f821691505b6020821081036200019257634e487b7160e01b600052602260045260246000fd5b50919050565b601f821115620001e657600081815260208120601f850160051c81016020861015620001c15750805b601f850160051c820191505b81811015620001e257828155600101620001cd565b5050505b505050565b81516001600160401b0381111562000207576200020762000146565b6200021f816200021884546200015c565b8462000198565b602080601f8311600181146200025757600084156200023e5750858301515b600019600386901b1c1916600185901b178555620001e2565b600085815260208120601f198616915b82811015620002885788860151825594840194600190910190840162000267565b5085821015620002a75787850151600019600388901b60f8161c191681555b5050505050600190811b01905550565b608051610c92620002d060003960005050610c926000f3fe608060405234801561001057600080fd5b50600436106101005760003560e01c8063715018a611610097578063a457c2d711610066578063a457c2d714610209578063a9059cbb1461021c578063dd62ed3e1461022f578063f2fde38b1461024257600080fd5b8063715018a6146101cb5780638da5cb5b146101d357806395d89b41146101ee5780639dc29fac146101f657600080fd5b8063313ce567116100d3578063313ce5671461016b578063395093511461017a57806340c10f191461018d57806370a08231146101a257600080fd5b806306fdde0314610105578063095ea7b31461012357806318160ddd1461014657806323b872dd14610158575b600080fd5b61010d610255565b60405161011a9190610aaf565b60405180910390f35b610136610131366004610b20565b6102e7565b604051901515815260200161011a565b6002545b60405190815260200161011a565b610136610166366004610b4a565b6102ff565b6040516012815260200161011a565b610136610188366004610b20565b610323565b6101a061019b366004610b20565b610345565b005b61014a6101b0366004610b86565b6001600160a01b031660009081526020819052604090205490565b6101a0610370565b6005546040516001600160a01b03909116815260200161011a565b61010d610384565b6101a0610204366004610b20565b610393565b610136610217366004610b20565b6103a5565b61013661022a366004610b20565b610425565b61014a61023d366004610ba8565b610433565b6101a0610250366004610b86565b61045e565b60606003805461026490610bdb565b80601f016020809104026020016040519081016040528092919081815260200182805461029090610bdb565b80156102dd5780601f106102b2576101008083540402835291602001916102dd565b820191906000526020600020905b8154815290600101906020018083116102c057829003601f168201915b5050505050905090565b6000336102f58185856104d7565b5060019392505050565b60003361030d8582856105fc565b610318858585610676565b506001949350505050565b6000336102f58185856103368383610433565b6103409190610c2b565b6104d7565b61034d61081a565b6006805490600061035d83610c43565b919050555061036c8282610874565b5050565b61037861081a565b6103826000610933565b565b60606004805461026490610bdb565b61039b61081a565b61036c8282610985565b600033816103b38286610433565b9050838110156104185760405162461bcd60e51b815260206004820152602560248201527f45524332303a2064656372656173656420616c6c6f77616e63652062656c6f77604482015264207a65726f60d81b60648201526084015b60405180910390fd5b61031882868684036104d7565b6000336102f5818585610676565b6001600160a01b03918216600090815260016020908152604080832093909416825291909152205490565b61046661081a565b6001600160a01b0381166104cb5760405162461bcd60e51b815260206004820152602660248201527f4f776e61626c653a206e6577206f776e657220697320746865207a65726f206160448201526564647265737360d01b606482015260840161040f565b6104d481610933565b50565b6001600160a01b0383166105395760405162461bcd60e51b8152602060048201526024808201527f45524332303a20617070726f76652066726f6d20746865207a65726f206164646044820152637265737360e01b606482015260840161040f565b6001600160a01b03821661059a5760405162461bcd60e51b815260206004820152602260248201527f45524332303a20617070726f766520746f20746865207a65726f206164647265604482015261737360f01b606482015260840161040f565b6001600160a01b0383811660008181526001602090815260408083209487168084529482529182902085905590518481527f8c5be1e5ebec7d5bd14f71427d1e84f3dd0314c0f7b2291e5b200ac8c7c3b92591015b60405180910390a3505050565b60006106088484610433565b9050600019811461067057818110156106635760405162461bcd60e51b815260206004820152601d60248201527f45524332303a20696e73756666696369656e7420616c6c6f77616e6365000000604482015260640161040f565b61067084848484036104d7565b50505050565b6001600160a01b0383166106da5760405162461bcd60e51b815260206004820152602560248201527f45524332303a207472616e736665722066726f6d20746865207a65726f206164604482015264647265737360d81b606482015260840161040f565b6001600160a01b03821661073c5760405162461bcd60e51b815260206004820152602360248201527f45524332303a207472616e7366657220746f20746865207a65726f206164647260448201526265737360e81b606482015260840161040f565b6001600160a01b038316600090815260208190526040902054818110156107b45760405162461bcd60e51b815260206004820152602660248201527f45524332303a207472616e7366657220616d6f756e7420657863656564732062604482015265616c616e636560d01b606482015260840161040f565b6001600160a01b03848116600081815260208181526040808320878703905593871680835291849020805487019055925185815290927fddf252ad1be2c89b69c2b068fc378daa952ba7f163c4a11628f55a4df523b3ef910160405180910390a3610670565b6005546001600160a01b031633146103825760405162461bcd60e51b815260206004820181905260248201527f4f776e61626c653a2063616c6c6572206973206e6f7420746865206f776e6572604482015260640161040f565b6001600160a01b0382166108ca5760405162461bcd60e51b815260206004820152601f60248201527f45524332303a206d696e7420746f20746865207a65726f206164647265737300604482015260640161040f565b80600260008282546108dc9190610c2b565b90915550506001600160a01b038216600081815260208181526040808320805486019055518481527fddf252ad1be2c89b69c2b068fc378daa952ba7f163c4a11628f55a4df523b3ef910160405180910390a35050565b600580546001600160a01b038381166001600160a01b0319831681179093556040519116919082907f8be0079c531659141344cd1fd0a4f28419497f9722a3daafe3b4186f6b6457e090600090a35050565b6001600160a01b0382166109e55760405162461bcd60e51b815260206004820152602160248201527f45524332303a206275726e2066726f6d20746865207a65726f206164647265736044820152607360f81b606482015260840161040f565b6001600160a01b03821660009081526020819052604090205481811015610a595760405162461bcd60e51b815260206004820152602260248201527f45524332303a206275726e20616d6f756e7420657863656564732062616c616e604482015261636560f01b606482015260840161040f565b6001600160a01b0383166000818152602081815260408083208686039055600280548790039055518581529192917fddf252ad1be2c89b69c2b068fc378daa952ba7f163c4a11628f55a4df523b3ef91016105ef565b600060208083528351808285015260005b81811015610adc57858101830151858201604001528201610ac0565b81811115610aee576000604083870101525b50601f01601f1916929092016040019392505050565b80356001600160a01b0381168114610b1b57600080fd5b919050565b60008060408385031215610b3357600080fd5b610b3c83610b04565b946020939093013593505050565b600080600060608486031215610b5f57600080fd5b610b6884610b04565b9250610b7660208501610b04565b9150604084013590509250925092565b600060208284031215610b9857600080fd5b610ba182610b04565b9392505050565b60008060408385031215610bbb57600080fd5b610bc483610b04565b9150610bd260208401610b04565b90509250929050565b600181811c90821680610bef57607f821691505b602082108103610c0f57634e487b7160e01b600052602260045260246000fd5b50919050565b634e487b7160e01b600052601160045260246000fd5b60008219821115610c3e57610c3e610c15565b500190565b600060018201610c5557610c55610c15565b506001019056fea2646970667358221220655354e0819631070ac97b2ead79119370817e57cb8367e3f896593fbfba024664736f6c634300080f0033a2646970667358221220c0eee8c587e51393a6663f936af931559ff642df829e12c8d020d1efa7aa2ce064736f6c634300080f0033",
    "linkReferences": {}
  },
  "methodIdentifiers": {
    "AAVE_POOL_POLYGON()": "bc3e142c",
    "ADDRESSES_PROVIDER()": "0542975c",
    "ERC20_TO_BORROW_POLYGON()": "a37f11e8",
    "ERC20_TO_DEPOSIT_POLYGON()": "a4385209",
    "POOL()": "7535d246",
    "PRAXIS_ERC20()": "f2495806",
    "deployERC20()": "d5155758",
    "executeOperation(address,uint256,uint256,address,bytes)": "1b11d0ff",
    "getLatestPrice()": "8e15f473",
    "get_CONTRACT_VALUE()": "7ec64d6c",
    "get_ETH3XUP_Positions(address)": "60342418",
    "get_USDC_contract_balance()": "24b1ea07",
    "get_WETH_contract_balance()": "7bfe6595",
    "give_Allowance_USDC()": "c7cce372",
    "give_Allowance_WETH()": "08674a5b",
    "initiate_ETH3XUP(uint256)": "12b0927f",
    "owner()": "8da5cb5b",
    "poolFee()": "089fe6aa",
    "redeem_ETHUP3X(address,uint256,uint256,uint256)": "e691c69a",
    "renounceOwnership()": "715018a6",
    "setPraxisERC20(address)": "1a4fe8f0",
    "swapRouter()": "c31c9c07",
    "transferOwnership(address)": "f2fde38b"
  },
  "id": 20
}