{
  "abi": [
    {
      "inputs": [
        {
          "internalType": "address",
          "name": "_addressProvider",
          "type": "address"
        },
        {
          "internalType": "contract ISwapRouter",
          "name": "_swapRouter",
          "type": "address"
        },
        {
          "internalType": "address",
          "name": "_WETHChainlink",
          "type": "address"
        },
        {
          "internalType": "address",
          "name": "_ERC20WETH",
          "type": "address"
        },
        {
          "internalType": "address",
          "name": "_ERC20USDC",
          "type": "address"
        },
        {
          "internalType": "address",
          "name": "_AAVE_POOL_POLYGON",
          "type": "address"
        }
      ],
      "stateMutability": "nonpayable",
      "type": "constructor"
    },
    {
      "anonymous": false,
      "inputs": [
        {
          "indexed": true,
          "internalType": "address",
          "name": "previousOwner",
          "type": "address"
        },
        {
          "indexed": true,
          "internalType": "address",
          "name": "newOwner",
          "type": "address"
        }
      ],
      "name": "OwnershipTransferred",
      "type": "event"
    },
    {
      "inputs": [],
      "name": "ADDRESSES_PROVIDER",
      "outputs": [
        {
          "internalType": "contract IPoolAddressesProvider",
          "name": "",
          "type": "address"
        }
      ],
      "stateMutability": "view",
      "type": "function"
    },
    {
      "inputs": [],
      "name": "POOL",
      "outputs": [
        {
          "internalType": "contract IPool",
          "name": "",
          "type": "address"
        }
      ],
      "stateMutability": "view",
      "type": "function"
    },
    {
      "inputs": [],
      "name": "PRAXIS_ERC20",
      "outputs": [
        {
          "internalType": "address",
          "name": "",
          "type": "address"
        }
      ],
      "stateMutability": "view",
      "type": "function"
    },
    {
      "inputs": [],
      "name": "deployERC20",
      "outputs": [
        {
          "internalType": "address",
          "name": "_praxisERC20",
          "type": "address"
        }
      ],
      "stateMutability": "nonpayable",
      "type": "function"
    },
    {
      "inputs": [
        {
          "internalType": "address",
          "name": "asset",
          "type": "address"
        },
        {
          "internalType": "uint256",
          "name": "amount",
          "type": "uint256"
        },
        {
          "internalType": "uint256",
          "name": "premium",
          "type": "uint256"
        },
        {
          "internalType": "address",
          "name": "initiator",
          "type": "address"
        },
        {
          "internalType": "bytes",
          "name": "params",
          "type": "bytes"
        }
      ],
      "name": "executeOperation",
      "outputs": [
        {
          "internalType": "bool",
          "name": "",
          "type": "bool"
        }
      ],
      "stateMutability": "nonpayable",
      "type": "function"
    },
    {
      "inputs": [],
      "name": "getLatestPrice",
      "outputs": [
        {
          "internalType": "int256",
          "name": "",
          "type": "int256"
        }
      ],
      "stateMutability": "view",
      "type": "function"
    },
    {
      "inputs": [
        {
          "internalType": "address",
          "name": "user",
          "type": "address"
        }
      ],
      "name": "get_ETH3XUP_Positions",
      "outputs": [
        {
          "components": [
            {
              "internalType": "address",
              "name": "owner",
              "type": "address"
            },
            {
              "internalType": "uint256",
              "name": "amountInEth",
              "type": "uint256"
            },
            {
              "internalType": "uint256",
              "name": "mintedTime",
              "type": "uint256"
            },
            {
              "internalType": "uint256",
              "name": "ethPrice",
              "type": "uint256"
            },
            {
              "internalType": "uint256",
              "name": "mintedTokens",
              "type": "uint256"
            },
            {
              "internalType": "bool",
              "name": "ifClosed",
              "type": "bool"
            }
          ],
          "internalType": "struct praxisFACTORY.Position[]",
          "name": "array_positions",
          "type": "tuple[]"
        }
      ],
      "stateMutability": "view",
      "type": "function"
    },
    {
      "inputs": [],
      "name": "get_USDC_contract_balance",
      "outputs": [
        {
          "internalType": "uint256",
          "name": "balance",
          "type": "uint256"
        }
      ],
      "stateMutability": "nonpayable",
      "type": "function"
    },
    {
      "inputs": [],
      "name": "get_WETH_contract_balance",
      "outputs": [
        {
          "internalType": "uint256",
          "name": "balance",
          "type": "uint256"
        }
      ],
      "stateMutability": "nonpayable",
      "type": "function"
    },
    {
      "inputs": [],
      "name": "give_Allowance_USDC",
      "outputs": [],
      "stateMutability": "nonpayable",
      "type": "function"
    },
    {
      "inputs": [],
      "name": "give_Allowance_WETH",
      "outputs": [],
      "stateMutability": "nonpayable",
      "type": "function"
    },
    {
      "inputs": [
        {
          "internalType": "uint256",
          "name": "amount",
          "type": "uint256"
        }
      ],
      "name": "initiate_ETH3XUP",
      "outputs": [],
      "stateMutability": "nonpayable",
      "type": "function"
    },
    {
      "inputs": [],
      "name": "owner",
      "outputs": [
        {
          "internalType": "address",
          "name": "",
          "type": "address"
        }
      ],
      "stateMutability": "view",
      "type": "function"
    },
    {
      "inputs": [],
      "name": "poolFee",
      "outputs": [
        {
          "internalType": "uint24",
          "name": "",
          "type": "uint24"
        }
      ],
      "stateMutability": "view",
      "type": "function"
    },
    {
      "inputs": [
        {
          "internalType": "address",
          "name": "_user",
          "type": "address"
        },
        {
          "internalType": "uint256",
          "name": "_amount",
          "type": "uint256"
        },
        {
          "internalType": "uint256",
          "name": "PositionIndex",
          "type": "uint256"
        },
        {
          "internalType": "uint256",
          "name": "USDC_Decimals",
          "type": "uint256"
        }
      ],
      "name": "redeem_ETHUP3X",
      "outputs": [
        {
          "internalType": "bool",
          "name": "",
          "type": "bool"
        }
      ],
      "stateMutability": "nonpayable",
      "type": "function"
    },
    {
      "inputs": [],
      "name": "renounceOwnership",
      "outputs": [],
      "stateMutability": "nonpayable",
      "type": "function"
    },
    {
      "inputs": [
        {
          "internalType": "address",
          "name": "bhai",
          "type": "address"
        }
      ],
      "name": "setPraxisERC20",
      "outputs": [],
      "stateMutability": "nonpayable",
      "type": "function"
    },
    {
      "inputs": [],
      "name": "swapRouter",
      "outputs": [
        {
          "internalType": "contract ISwapRouter",
          "name": "",
          "type": "address"
        }
      ],
      "stateMutability": "view",
      "type": "function"
    },
    {
      "inputs": [
        {
          "internalType": "address",
          "name": "newOwner",
          "type": "address"
        }
      ],
      "name": "transferOwnership",
      "outputs": [],
      "stateMutability": "nonpayable",
      "type": "function"
    },
    {
      "stateMutability": "payable",
      "type": "receive"
    }
  ],
  "bytecode": {
    "object": "0x610140604052670de0b6b3a76400006005553480156200001e57600080fd5b506040516200329e3803806200329e833981016040819052620000419162000180565b85806001600160a01b03166080816001600160a01b031681525050806001600160a01b031663026b1d5f6040518163ffffffff1660e01b8152600401602060405180830381865afa1580156200009b573d6000803e3d6000fd5b505050506040513d601f19601f82011682018060405250810190620000c1919062000214565b6001600160a01b031660a05250620000d93362000117565b6001600160a01b0394851661012052600180546001600160a01b0319169486169490941790935590831660c052821660e0521661010052506200023b565b600080546001600160a01b038381166001600160a01b0319831681178455604051919092169283917f8be0079c531659141344cd1fd0a4f28419497f9722a3daafe3b4186f6b6457e09190a35050565b6001600160a01b03811681146200017d57600080fd5b50565b60008060008060008060c087890312156200019a57600080fd5b8651620001a78162000167565b6020880151909650620001ba8162000167565b6040880151909550620001cd8162000167565b6060880151909450620001e08162000167565b6080880151909350620001f38162000167565b60a0880151909250620002068162000167565b809150509295509295509295565b6000602082840312156200022757600080fd5b8151620002348162000167565b9392505050565b60805160a05160c05160e0516101005161012051612f4862000356600039600081816103630152818161152e015281816115fa015261167f015260008181610442015281816106d301528181610b1f01528181610e6001528181610f750152818161135701528181611428015281816114e70152818161173901526117d50152600081816107bd015281816108d701528181610b4f01528181610bf101528181610efc01528181610f39015281816110b80152818161115b01526114a2015260008181610472015281816105d4015281816106ac015281816107de01528181610a3e01528181610bc401528181610e2801528181610edb01526113ea0152600081816102dd015261082a015260006101500152612f486000f3fe6080604052600436106200012f5760003560e01c80637535d24611620000ad578063c7cce372116200006c578063c7cce3721462000385578063d5155758146200039d578063e691c69a14620003b5578063f249580614620003da578063f2fde38b14620003fc57600080fd5b80637535d24614620002c95780637bfe659514620002ff5780638da5cb5b14620003175780638e15f4731462000337578063c31c9c07146200034f57600080fd5b80631a4fe8f011620000fa5780631a4fe8f014620001fb5780631b11d0ff146200022057806324b1ea07146200025657806360342418146200027d578063715018a614620002b157600080fd5b80630542975c146200013c57806308674a5b146200018f578063089fe6aa14620001a957806312b0927f14620001d657600080fd5b366200013757005b600080fd5b3480156200014957600080fd5b50620001727f000000000000000000000000000000000000000000000000000000000000000081565b6040516001600160a01b0390911681526020015b60405180910390f35b3480156200019c57600080fd5b50620001a762000421565b005b348015620001b657600080fd5b50620001c1610bb881565b60405162ffffff909116815260200162000186565b348015620001e357600080fd5b50620001a7620001f536600462001b76565b620004e6565b3480156200020857600080fd5b50620001a76200021a36600462001bad565b6200060b565b3480156200022d57600080fd5b50620002456200023f36600462001bd2565b62000637565b604051901515815260200162000186565b3480156200026357600080fd5b506200026e620008bf565b60405190815260200162000186565b3480156200028a57600080fd5b50620002a26200029c36600462001bad565b62000953565b60405162000186919062001c81565b348015620002be57600080fd5b50620001a762000a0e565b348015620002d657600080fd5b50620001727f000000000000000000000000000000000000000000000000000000000000000081565b3480156200030c57600080fd5b506200026e62000a26565b3480156200032457600080fd5b506000546001600160a01b031662000172565b3480156200034457600080fd5b506200026e62000a76565b3480156200035c57600080fd5b50620001727f000000000000000000000000000000000000000000000000000000000000000081565b3480156200039257600080fd5b50620001a762000afe565b348015620003aa57600080fd5b506200017262000b7f565b348015620003c257600080fd5b5062000245620003d436600462001d06565b62000c4a565b348015620003e757600080fd5b5060025462000172906001600160a01b031681565b3480156200040957600080fd5b50620001a76200041b36600462001bad565b62001251565b6200042b620012cd565b60405163095ea7b360e01b81526001600160a01b037f00000000000000000000000000000000000000000000000000000000000000008116600483015260001960248301527f0000000000000000000000000000000000000000000000000000000000000000169063095ea7b3906044015b6020604051808303816000875af1158015620004bd573d6000803e3d6000fd5b505050506040513d601f19601f82011682018060405250810190620004e3919062001d42565b50565b60006040518060c00160405280336001600160a01b031681526020018381526020014281526020016200051862000a76565b81526000602080830182905260409283018290523382526003815282822060049091529190205481549293508392811062000557576200055762001d66565b600091825260209182902083516006929092020180546001600160a01b0319166001600160a01b039092169190911781559082015160018201556040820151600280830191909155606083015160038301556080830151600483015560a0909201516005909101805460ff191691151591909117905562000607907f0000000000000000000000000000000000000000000000000000000000000000906200060190859062001d92565b62001329565b5050565b62000615620012cd565b600280546001600160a01b0319166001600160a01b0392909216919091179055565b3260009081526003602090815260408083206004909252822054815483929190811062000668576200066862001d66565b6000918252602080832060016006909302019190910154328352600490915260408220805491935090916200069d8362001db4565b90915550506001600160a01b037f00000000000000000000000000000000000000000000000000000000000000001663095ea7b37f0000000000000000000000000000000000000000000000000000000000000000620006ff84600362001d92565b6040516001600160e01b031960e085901b1681526001600160a01b03909216600483015260248201526044016020604051808303816000875af11580156200074b573d6000803e3d6000fd5b505050506040513d601f19601f8201168201806040525081019062000771919062001d42565b506200078a306200078483600362001d92565b620013d3565b60006200079982600262001d92565b9050620007a730826200148b565b600062000803620007ba84600262001d92565b837f00000000000000000000000000000000000000000000000000000000000000007f000000000000000000000000000000000000000000000000000000000000000062001517565b9050600062000813898b62001dd0565b60405163095ea7b360e01b81526001600160a01b037f00000000000000000000000000000000000000000000000000000000000000008116600483015260248201839052919250908c169063095ea7b3906044016020604051808303816000875af115801562000887573d6000803e3d6000fd5b505050506040513d601f19601f82011682018060405250810190620008ad919062001d42565b5060019b9a5050505050505050505050565b6040516370a0823160e01b81523060048201526000907f00000000000000000000000000000000000000000000000000000000000000006001600160a01b0316906370a08231906024015b602060405180830381865afa15801562000928573d6000803e3d6000fd5b505050506040513d601f19601f820116820180604052508101906200094e919062001deb565b905090565b6001600160a01b0381166000908152600360209081526040808320805482518185028101850190935280835260609492939192909184015b8282101562000a035760008481526020908190206040805160c0810182526006860290920180546001600160a01b031683526001808201548486015260028201549284019290925260038101546060840152600481015460808401526005015460ff16151560a083015290835290920191016200098b565b505050509050919050565b62000a18620012cd565b62000a246000620016c7565b565b6040516370a0823160e01b81523060048201526000907f00000000000000000000000000000000000000000000000000000000000000006001600160a01b0316906370a08231906024016200090a565b600080600160009054906101000a90046001600160a01b03166001600160a01b031663feaf968c6040518163ffffffff1660e01b815260040160a060405180830381865afa15801562000acd573d6000803e3d6000fd5b505050506040513d601f19601f8201168201806040525081019062000af3919062001e20565b509195945050505050565b62000b08620012cd565b60405163095ea7b360e01b81526001600160a01b037f00000000000000000000000000000000000000000000000000000000000000008116600483015260001960248301527f0000000000000000000000000000000000000000000000000000000000000000169063095ea7b3906044016200049d565b600062000b8b620012cd565b60006040518060200162000b9f9062001b68565b601f1982820381018352601f9091011660408190526bffffffffffffffffffffffff197f0000000000000000000000000000000000000000000000000000000000000000606090811b821660208401527f0000000000000000000000000000000000000000000000000000000000000000901b166034820152909150600090604801604051602081830303815290604052805190602001209050808251602084016000f59250505090565b6002546040516370a0823160e01b81526001600160a01b03868116600483015260009283929116906370a0823190602401602060405180830381865afa15801562000c99573d6000803e3d6000fd5b505050506040513d601f19601f8201168201806040525081019062000cbf919062001deb565b90508085111562000d0a5760405162461bcd60e51b815260206004820152601060248201526f4e4f545f454e4f5547485f434f494e5360801b60448201526064015b60405180910390fd5b600254604080516318160ddd60e01b815290516000926001600160a01b0316916318160ddd9160048083019260209291908290030181865afa15801562000d55573d6000803e3d6000fd5b505050506040513d601f19601f8201168201806040525081019062000d7b919062001deb565b9050600062000d8b828862001e75565b9050600062000d9962000a76565b9050600062000da762001717565b62000db3908462001d92565b905062000dc1828262001e75565b905062000dd781670de0b6b3a764000062001d92565b9050600062000de5620017b3565b62000df1908562001d92565b905062000e036305f5e1008262001e75565b905062000e11888262001d92565b604051631a4ca37b60e21b81526001600160a01b037f000000000000000000000000000000000000000000000000000000000000000081166004830152602482018590523360448301529192507f0000000000000000000000000000000000000000000000000000000000000000909116906369328dec906064016020604051808303816000875af115801562000eac573d6000803e3d6000fd5b505050506040513d601f19601f8201168201806040525081019062000ed2919062001deb565b5062000f2181837f00000000000000000000000000000000000000000000000000000000000000007f000000000000000000000000000000000000000000000000000000000000000062001517565b5060405163573ade8160e01b81526001600160a01b037f00000000000000000000000000000000000000000000000000000000000000008116600483015260248201839052600260448301523060648301527f0000000000000000000000000000000000000000000000000000000000000000169063573ade81906084016020604051808303816000875af115801562000fbf573d6000803e3d6000fd5b505050506040513d601f19601f8201168201806040525081019062000fe5919062001deb565b506001600160a01b038b1660009081526003602052604090208054600191908b90811062001017576200101762001d66565b60009182526020909120600690910201600501805460ff1916911515919091179055600254604051632770a7eb60e21b81526001600160a01b038d81166004830152602482018d905290911690639dc29fac90604401600060405180830381600087803b1580156200108857600080fd5b505af11580156200109d573d6000803e3d6000fd5b50506040516370a0823160e01b8152306004820152600092507f00000000000000000000000000000000000000000000000000000000000000006001600160a01b031691506370a0823190602401602060405180830381865afa15801562001109573d6000803e3d6000fd5b505050506040513d601f19601f820116820180604052508101906200112f919062001deb565b60405163a9059cbb60e01b81526001600160a01b038e81166004830152602482018390529192506000917f0000000000000000000000000000000000000000000000000000000000000000169063a9059cbb906044016020604051808303816000875af1158015620011a5573d6000803e3d6000fd5b505050506040513d601f19601f82011682018060405250810190620011cb919062001d42565b905080620011d857600080fd5b600254604051632770a7eb60e21b81526001600160a01b038f81166004830152602482018f905290911690639dc29fac90604401600060405180830381600087803b1580156200122757600080fd5b505af11580156200123c573d6000803e3d6000fd5b50929f9e505050505050505050505050505050565b6200125b620012cd565b6001600160a01b038116620012c25760405162461bcd60e51b815260206004820152602660248201527f4f776e61626c653a206e6577206f776e657220697320746865207a65726f206160448201526564647265737360d01b606482015260840162000d01565b620004e381620016c7565b6000546001600160a01b0316331462000a245760405162461bcd60e51b815260206004820181905260248201527f4f776e61626c653a2063616c6c6572206973206e6f7420746865206f776e6572604482015260640162000d01565b60408051602081018252600080825291516310ac2ddf60e21b81523092859285929091906001600160a01b037f000000000000000000000000000000000000000000000000000000000000000016906342b0b77c9062001396908890889088908890889060040162001ecb565b600060405180830381600087803b158015620013b157600080fd5b505af1158015620013c6573d6000803e3d6000fd5b5050505050505050505050565b60405163617ba03760e01b81526001600160a01b037f000000000000000000000000000000000000000000000000000000000000000081166004830152602482018390528381166044830152600060648301527f0000000000000000000000000000000000000000000000000000000000000000169063617ba037906084015b600060405180830381600087803b1580156200146e57600080fd5b505af115801562001483573d6000803e3d6000fd5b505050505050565b60405163a415bcad60e01b81526001600160a01b037f00000000000000000000000000000000000000000000000000000000000000008116600483015260248201839052600060448301819052606483015283811660848301527f0000000000000000000000000000000000000000000000000000000000000000169063a415bcad9060a40162001453565b600062001527833330876200184f565b62001556837f00000000000000000000000000000000000000000000000000000000000000006000196200195b565b60408051610100810182526001600160a01b03858116825284811660208301908152610bb88385019081523360608501908152426080860190815260a086018c815260c087018c8152600060e089019081529851631b67c43360e31b8152885188166004820152955187166024870152935162ffffff1660448601529151851660648501525160848401525160a48301525160c48201529251811660e484015290917f00000000000000000000000000000000000000000000000000000000000000009091169063db3e219890610104016020604051808303816000875af115801562001647573d6000803e3d6000fd5b505050506040513d601f19601f820116820180604052508101906200166d919062001deb565b915084821015620016be57620016a6847f000000000000000000000000000000000000000000000000000000000000000060006200195b565b620016be8433620016b8858962001f2d565b62001a65565b50949350505050565b600080546001600160a01b038381166001600160a01b0319831681178455604051919092169283917f8be0079c531659141344cd1fd0a4f28419497f9722a3daafe3b4186f6b6457e09190a35050565b604051632fe4a15f60e21b815230600482015260009081906001600160a01b037f0000000000000000000000000000000000000000000000000000000000000000169063bf92857c9060240160c060405180830381865afa15801562001781573d6000803e3d6000fd5b505050506040513d601f19601f82011682018060405250810190620017a7919062001f47565b50939695505050505050565b604051632fe4a15f60e21b815230600482015260009081906001600160a01b037f0000000000000000000000000000000000000000000000000000000000000000169063bf92857c9060240160c060405180830381865afa1580156200181d573d6000803e3d6000fd5b505050506040513d601f19601f8201168201806040525081019062001843919062001f47565b50929695505050505050565b604080516001600160a01b0385811660248301528481166044830152606480830185905283518084039091018152608490920183526020820180516001600160e01b03166323b872dd60e01b1790529151600092839290881691620018b5919062001f92565b6000604051808303816000865af19150503d8060008114620018f4576040519150601f19603f3d011682016040523d82523d6000602084013e620018f9565b606091505b5091509150818015620019275750805115806200192757508080602001905181019062001927919062001d42565b620014835760405162461bcd60e51b815260206004820152600360248201526229aa2360e91b604482015260640162000d01565b604080516001600160a01b038481166024830152604480830185905283518084039091018152606490920183526020820180516001600160e01b031663095ea7b360e01b1790529151600092839290871691620019b9919062001f92565b6000604051808303816000865af19150503d8060008114620019f8576040519150601f19603f3d011682016040523d82523d6000602084013e620019fd565b606091505b509150915081801562001a2b57508051158062001a2b57508080602001905181019062001a2b919062001d42565b62001a5e5760405162461bcd60e51b8152602060048201526002602482015261534160f01b604482015260640162000d01565b5050505050565b604080516001600160a01b038481166024830152604480830185905283518084039091018152606490920183526020820180516001600160e01b031663a9059cbb60e01b179052915160009283929087169162001ac3919062001f92565b6000604051808303816000865af19150503d806000811462001b02576040519150601f19603f3d011682016040523d82523d6000602084013e62001b07565b606091505b509150915081801562001b3557508051158062001b3557508080602001905181019062001b35919062001d42565b62001a5e5760405162461bcd60e51b815260206004820152600260248201526114d560f21b604482015260640162000d01565b610f628062001fb183390190565b60006020828403121562001b8957600080fd5b5035919050565b80356001600160a01b038116811462001ba857600080fd5b919050565b60006020828403121562001bc057600080fd5b62001bcb8262001b90565b9392505050565b60008060008060008060a0878903121562001bec57600080fd5b62001bf78762001b90565b9550602087013594506040870135935062001c156060880162001b90565b9250608087013567ffffffffffffffff8082111562001c3357600080fd5b818901915089601f83011262001c4857600080fd5b81358181111562001c5857600080fd5b8a602082850101111562001c6b57600080fd5b6020830194508093505050509295509295509295565b602080825282518282018190526000919060409081850190868401855b8281101562001cf957815180516001600160a01b0316855286810151878601528581015186860152606080820151908601526080808201519086015260a09081015115159085015260c0909301929085019060010162001c9e565b5091979650505050505050565b6000806000806080858703121562001d1d57600080fd5b62001d288562001b90565b966020860135965060408601359560600135945092505050565b60006020828403121562001d5557600080fd5b8151801515811462001bcb57600080fd5b634e487b7160e01b600052603260045260246000fd5b634e487b7160e01b600052601160045260246000fd5b600081600019048311821515161562001daf5762001daf62001d7c565b500290565b60006001820162001dc95762001dc962001d7c565b5060010190565b6000821982111562001de65762001de662001d7c565b500190565b60006020828403121562001dfe57600080fd5b5051919050565b805169ffffffffffffffffffff8116811462001ba857600080fd5b600080600080600060a0868803121562001e3957600080fd5b62001e448662001e05565b945060208601519350604086015192506060860151915062001e696080870162001e05565b90509295509295909350565b60008262001e9357634e487b7160e01b600052601260045260246000fd5b500490565b60005b8381101562001eb557818101518382015260200162001e9b565b8381111562001ec5576000848401525b50505050565b600060018060a01b03808816835280871660208401525084604083015260a0606083015283518060a084015262001f0a8160c085016020880162001e98565b61ffff93909316608083015250601f91909101601f19160160c001949350505050565b60008282101562001f425762001f4262001d7c565b500390565b60008060008060008060c0878903121562001f6157600080fd5b865195506020870151945060408701519350606087015192506080870151915060a087015190509295509295509295565b6000825162001fa681846020870162001e98565b919091019291505056fe60a06040523480156200001157600080fd5b5060405162000f6238038062000f62833981016040819052620000349162000114565b6040518060400160405280600681526020016550524158495360d01b815250604051806040016040528060038152602001620a0a4b60eb1b8152508160039081620000809190620001eb565b5060046200008f8282620001eb565b505050620000ac620000a6620000be60201b60201c565b620000c2565b6001600160a01b0316608052620002b7565b3390565b600580546001600160a01b038381166001600160a01b0319831681179093556040519116919082907f8be0079c531659141344cd1fd0a4f28419497f9722a3daafe3b4186f6b6457e090600090a35050565b6000602082840312156200012757600080fd5b81516001600160a01b03811681146200013f57600080fd5b9392505050565b634e487b7160e01b600052604160045260246000fd5b600181811c908216806200017157607f821691505b6020821081036200019257634e487b7160e01b600052602260045260246000fd5b50919050565b601f821115620001e657600081815260208120601f850160051c81016020861015620001c15750805b601f850160051c820191505b81811015620001e257828155600101620001cd565b5050505b505050565b81516001600160401b0381111562000207576200020762000146565b6200021f816200021884546200015c565b8462000198565b602080601f8311600181146200025757600084156200023e5750858301515b600019600386901b1c1916600185901b178555620001e2565b600085815260208120601f198616915b82811015620002885788860151825594840194600190910190840162000267565b5085821015620002a75787850151600019600388901b60f8161c191681555b5050505050600190811b01905550565b608051610c92620002d060003960005050610c926000f3fe608060405234801561001057600080fd5b50600436106101005760003560e01c8063715018a611610097578063a457c2d711610066578063a457c2d714610209578063a9059cbb1461021c578063dd62ed3e1461022f578063f2fde38b1461024257600080fd5b8063715018a6146101cb5780638da5cb5b146101d357806395d89b41146101ee5780639dc29fac146101f657600080fd5b8063313ce567116100d3578063313ce5671461016b578063395093511461017a57806340c10f191461018d57806370a08231146101a257600080fd5b806306fdde0314610105578063095ea7b31461012357806318160ddd1461014657806323b872dd14610158575b600080fd5b61010d610255565b60405161011a9190610aaf565b60405180910390f35b610136610131366004610b20565b6102e7565b604051901515815260200161011a565b6002545b60405190815260200161011a565b610136610166366004610b4a565b6102ff565b6040516012815260200161011a565b610136610188366004610b20565b610323565b6101a061019b366004610b20565b610345565b005b61014a6101b0366004610b86565b6001600160a01b031660009081526020819052604090205490565b6101a0610370565b6005546040516001600160a01b03909116815260200161011a565b61010d610384565b6101a0610204366004610b20565b610393565b610136610217366004610b20565b6103a5565b61013661022a366004610b20565b610425565b61014a61023d366004610ba8565b610433565b6101a0610250366004610b86565b61045e565b60606003805461026490610bdb565b80601f016020809104026020016040519081016040528092919081815260200182805461029090610bdb565b80156102dd5780601f106102b2576101008083540402835291602001916102dd565b820191906000526020600020905b8154815290600101906020018083116102c057829003601f168201915b5050505050905090565b6000336102f58185856104d7565b5060019392505050565b60003361030d8582856105fc565b610318858585610676565b506001949350505050565b6000336102f58185856103368383610433565b6103409190610c2b565b6104d7565b61034d61081a565b6006805490600061035d83610c43565b919050555061036c8282610874565b5050565b61037861081a565b6103826000610933565b565b60606004805461026490610bdb565b61039b61081a565b61036c8282610985565b600033816103b38286610433565b9050838110156104185760405162461bcd60e51b815260206004820152602560248201527f45524332303a2064656372656173656420616c6c6f77616e63652062656c6f77604482015264207a65726f60d81b60648201526084015b60405180910390fd5b61031882868684036104d7565b6000336102f5818585610676565b6001600160a01b03918216600090815260016020908152604080832093909416825291909152205490565b61046661081a565b6001600160a01b0381166104cb5760405162461bcd60e51b815260206004820152602660248201527f4f776e61626c653a206e6577206f776e657220697320746865207a65726f206160448201526564647265737360d01b606482015260840161040f565b6104d481610933565b50565b6001600160a01b0383166105395760405162461bcd60e51b8152602060048201526024808201527f45524332303a20617070726f76652066726f6d20746865207a65726f206164646044820152637265737360e01b606482015260840161040f565b6001600160a01b03821661059a5760405162461bcd60e51b815260206004820152602260248201527f45524332303a20617070726f766520746f20746865207a65726f206164647265604482015261737360f01b606482015260840161040f565b6001600160a01b0383811660008181526001602090815260408083209487168084529482529182902085905590518481527f8c5be1e5ebec7d5bd14f71427d1e84f3dd0314c0f7b2291e5b200ac8c7c3b92591015b60405180910390a3505050565b60006106088484610433565b9050600019811461067057818110156106635760405162461bcd60e51b815260206004820152601d60248201527f45524332303a20696e73756666696369656e7420616c6c6f77616e6365000000604482015260640161040f565b61067084848484036104d7565b50505050565b6001600160a01b0383166106da5760405162461bcd60e51b815260206004820152602560248201527f45524332303a207472616e736665722066726f6d20746865207a65726f206164604482015264647265737360d81b606482015260840161040f565b6001600160a01b03821661073c5760405162461bcd60e51b815260206004820152602360248201527f45524332303a207472616e7366657220746f20746865207a65726f206164647260448201526265737360e81b606482015260840161040f565b6001600160a01b038316600090815260208190526040902054818110156107b45760405162461bcd60e51b815260206004820152602660248201527f45524332303a207472616e7366657220616d6f756e7420657863656564732062604482015265616c616e636560d01b606482015260840161040f565b6001600160a01b03848116600081815260208181526040808320878703905593871680835291849020805487019055925185815290927fddf252ad1be2c89b69c2b068fc378daa952ba7f163c4a11628f55a4df523b3ef910160405180910390a3610670565b6005546001600160a01b031633146103825760405162461bcd60e51b815260206004820181905260248201527f4f776e61626c653a2063616c6c6572206973206e6f7420746865206f776e6572604482015260640161040f565b6001600160a01b0382166108ca5760405162461bcd60e51b815260206004820152601f60248201527f45524332303a206d696e7420746f20746865207a65726f206164647265737300604482015260640161040f565b80600260008282546108dc9190610c2b565b90915550506001600160a01b038216600081815260208181526040808320805486019055518481527fddf252ad1be2c89b69c2b068fc378daa952ba7f163c4a11628f55a4df523b3ef910160405180910390a35050565b600580546001600160a01b038381166001600160a01b0319831681179093556040519116919082907f8be0079c531659141344cd1fd0a4f28419497f9722a3daafe3b4186f6b6457e090600090a35050565b6001600160a01b0382166109e55760405162461bcd60e51b815260206004820152602160248201527f45524332303a206275726e2066726f6d20746865207a65726f206164647265736044820152607360f81b606482015260840161040f565b6001600160a01b03821660009081526020819052604090205481811015610a595760405162461bcd60e51b815260206004820152602260248201527f45524332303a206275726e20616d6f756e7420657863656564732062616c616e604482015261636560f01b606482015260840161040f565b6001600160a01b0383166000818152602081815260408083208686039055600280548790039055518581529192917fddf252ad1be2c89b69c2b068fc378daa952ba7f163c4a11628f55a4df523b3ef91016105ef565b600060208083528351808285015260005b81811015610adc57858101830151858201604001528201610ac0565b81811115610aee576000604083870101525b50601f01601f1916929092016040019392505050565b80356001600160a01b0381168114610b1b57600080fd5b919050565b60008060408385031215610b3357600080fd5b610b3c83610b04565b946020939093013593505050565b600080600060608486031215610b5f57600080fd5b610b6884610b04565b9250610b7660208501610b04565b9150604084013590509250925092565b600060208284031215610b9857600080fd5b610ba182610b04565b9392505050565b60008060408385031215610bbb57600080fd5b610bc483610b04565b9150610bd260208401610b04565b90509250929050565b600181811c90821680610bef57607f821691505b602082108103610c0f57634e487b7160e01b600052602260045260246000fd5b50919050565b634e487b7160e01b600052601160045260246000fd5b60008219821115610c3e57610c3e610c15565b500190565b600060018201610c5557610c55610c15565b506001019056fea2646970667358221220655354e0819631070ac97b2ead79119370817e57cb8367e3f896593fbfba024664736f6c634300080f0033a264697066735822122098d5a669b0c514ac3749442894c0e77b1d9cf956fe0581b8d93932d72fb04fa064736f6c634300080f0033",
    "linkReferences": {}
  },
  "methodIdentifiers": {
    "ADDRESSES_PROVIDER()": "0542975c",
    "POOL()": "7535d246",
    "PRAXIS_ERC20()": "f2495806",
    "deployERC20()": "d5155758",
    "executeOperation(address,uint256,uint256,address,bytes)": "1b11d0ff",
    "getLatestPrice()": "8e15f473",
    "get_ETH3XUP_Positions(address)": "60342418",
    "get_USDC_contract_balance()": "24b1ea07",
    "get_WETH_contract_balance()": "7bfe6595",
    "give_Allowance_USDC()": "c7cce372",
    "give_Allowance_WETH()": "08674a5b",
    "initiate_ETH3XUP(uint256)": "12b0927f",
    "owner()": "8da5cb5b",
    "poolFee()": "089fe6aa",
    "redeem_ETHUP3X(address,uint256,uint256,uint256)": "e691c69a",
    "renounceOwnership()": "715018a6",
    "setPraxisERC20(address)": "1a4fe8f0",
    "swapRouter()": "c31c9c07",
    "transferOwnership(address)": "f2fde38b"
  },
  "id": 20
}