{
  "abi": [
    {
      "inputs": [
        {
          "internalType": "address",
          "name": "_addressProvider",
          "type": "address"
        }
      ],
      "stateMutability": "nonpayable",
      "type": "constructor"
    },
    {
      "anonymous": false,
      "inputs": [
        {
          "indexed": true,
          "internalType": "address",
          "name": "previousOwner",
          "type": "address"
        },
        {
          "indexed": true,
          "internalType": "address",
          "name": "newOwner",
          "type": "address"
        }
      ],
      "name": "OwnershipTransferred",
      "type": "event"
    },
    {
      "inputs": [],
      "name": "AAVE_POOL_POLYGON",
      "outputs": [
        {
          "internalType": "address",
          "name": "",
          "type": "address"
        }
      ],
      "stateMutability": "view",
      "type": "function"
    },
    {
      "inputs": [],
      "name": "ADDRESSES_PROVIDER",
      "outputs": [
        {
          "internalType": "contract IPoolAddressesProvider",
          "name": "",
          "type": "address"
        }
      ],
      "stateMutability": "view",
      "type": "function"
    },
    {
      "inputs": [
        {
          "internalType": "uint256",
          "name": "amountInEth",
          "type": "uint256"
        }
      ],
      "name": "CALCULATE_TOKENS_TO_MINT",
      "outputs": [
        {
          "internalType": "uint256",
          "name": "",
          "type": "uint256"
        }
      ],
      "stateMutability": "nonpayable",
      "type": "function"
    },
    {
      "inputs": [],
      "name": "ERC20_TO_BORROW_POLYGON",
      "outputs": [
        {
          "internalType": "address",
          "name": "",
          "type": "address"
        }
      ],
      "stateMutability": "view",
      "type": "function"
    },
    {
      "inputs": [],
      "name": "ERC20_TO_DEPOSIT_POLYGON",
      "outputs": [
        {
          "internalType": "address",
          "name": "",
          "type": "address"
        }
      ],
      "stateMutability": "view",
      "type": "function"
    },
    {
      "inputs": [],
      "name": "POOL",
      "outputs": [
        {
          "internalType": "contract IPool",
          "name": "",
          "type": "address"
        }
      ],
      "stateMutability": "view",
      "type": "function"
    },
    {
      "inputs": [],
      "name": "PRAXIS_ERC20",
      "outputs": [
        {
          "internalType": "address",
          "name": "",
          "type": "address"
        }
      ],
      "stateMutability": "view",
      "type": "function"
    },
    {
      "inputs": [
        {
          "internalType": "address",
          "name": "asset",
          "type": "address"
        },
        {
          "internalType": "uint256",
          "name": "amount",
          "type": "uint256"
        },
        {
          "internalType": "uint256",
          "name": "premium",
          "type": "uint256"
        },
        {
          "internalType": "address",
          "name": "initiator",
          "type": "address"
        },
        {
          "internalType": "bytes",
          "name": "params",
          "type": "bytes"
        }
      ],
      "name": "executeOperation",
      "outputs": [
        {
          "internalType": "bool",
          "name": "",
          "type": "bool"
        }
      ],
      "stateMutability": "nonpayable",
      "type": "function"
    },
    {
      "inputs": [],
      "name": "getLatestPrice",
      "outputs": [
        {
          "internalType": "int256",
          "name": "",
          "type": "int256"
        }
      ],
      "stateMutability": "view",
      "type": "function"
    },
    {
      "inputs": [],
      "name": "get_CONTRACT_USDC_POSITION",
      "outputs": [
        {
          "internalType": "uint256",
          "name": "",
          "type": "uint256"
        }
      ],
      "stateMutability": "nonpayable",
      "type": "function"
    },
    {
      "inputs": [],
      "name": "get_CONTRACT_VALUE",
      "outputs": [
        {
          "internalType": "uint256",
          "name": "",
          "type": "uint256"
        }
      ],
      "stateMutability": "nonpayable",
      "type": "function"
    },
    {
      "inputs": [],
      "name": "get_CONTRACT_WETH_POSITION",
      "outputs": [
        {
          "internalType": "uint256",
          "name": "",
          "type": "uint256"
        }
      ],
      "stateMutability": "nonpayable",
      "type": "function"
    },
    {
      "inputs": [
        {
          "internalType": "address",
          "name": "user",
          "type": "address"
        }
      ],
      "name": "get_ETH3XUP_Positions",
      "outputs": [
        {
          "components": [
            {
              "internalType": "address",
              "name": "owner",
              "type": "address"
            },
            {
              "internalType": "uint256",
              "name": "amountInEth",
              "type": "uint256"
            },
            {
              "internalType": "uint256",
              "name": "mintedTime",
              "type": "uint256"
            },
            {
              "internalType": "uint256",
              "name": "ethPrice",
              "type": "uint256"
            },
            {
              "internalType": "uint256",
              "name": "mintedTokens",
              "type": "uint256"
            },
            {
              "internalType": "bool",
              "name": "ifClosed",
              "type": "bool"
            },
            {
              "internalType": "uint256",
              "name": "positionValue",
              "type": "uint256"
            }
          ],
          "internalType": "struct praxisFACTORY.Position[]",
          "name": "array_positions",
          "type": "tuple[]"
        }
      ],
      "stateMutability": "view",
      "type": "function"
    },
    {
      "inputs": [],
      "name": "get_USDC_contract_balance",
      "outputs": [
        {
          "internalType": "uint256",
          "name": "balance",
          "type": "uint256"
        }
      ],
      "stateMutability": "nonpayable",
      "type": "function"
    },
    {
      "inputs": [],
      "name": "get_WETH_contract_balance",
      "outputs": [
        {
          "internalType": "uint256",
          "name": "balance",
          "type": "uint256"
        }
      ],
      "stateMutability": "nonpayable",
      "type": "function"
    },
    {
      "inputs": [
        {
          "internalType": "address",
          "name": "_User",
          "type": "address"
        }
      ],
      "name": "get_current_Params",
      "outputs": [
        {
          "internalType": "uint256",
          "name": "_amountInEth",
          "type": "uint256"
        },
        {
          "internalType": "uint256",
          "name": "_ethPrice",
          "type": "uint256"
        }
      ],
      "stateMutability": "nonpayable",
      "type": "function"
    },
    {
      "inputs": [],
      "name": "gettotalSupply",
      "outputs": [
        {
          "internalType": "uint256",
          "name": "",
          "type": "uint256"
        }
      ],
      "stateMutability": "view",
      "type": "function"
    },
    {
      "inputs": [],
      "name": "give_Allowance_USDC",
      "outputs": [],
      "stateMutability": "nonpayable",
      "type": "function"
    },
    {
      "inputs": [],
      "name": "give_Allowance_WETH",
      "outputs": [],
      "stateMutability": "nonpayable",
      "type": "function"
    },
    {
      "inputs": [
        {
          "internalType": "uint256",
          "name": "amount",
          "type": "uint256"
        }
      ],
      "name": "initiate_ETH3XUP",
      "outputs": [],
      "stateMutability": "nonpayable",
      "type": "function"
    },
    {
      "inputs": [],
      "name": "owner",
      "outputs": [
        {
          "internalType": "address",
          "name": "",
          "type": "address"
        }
      ],
      "stateMutability": "view",
      "type": "function"
    },
    {
      "inputs": [],
      "name": "poolFee",
      "outputs": [
        {
          "internalType": "uint24",
          "name": "",
          "type": "uint24"
        }
      ],
      "stateMutability": "view",
      "type": "function"
    },
    {
      "inputs": [
        {
          "internalType": "address",
          "name": "_user",
          "type": "address"
        },
        {
          "internalType": "uint256",
          "name": "_amount",
          "type": "uint256"
        },
        {
          "internalType": "uint256",
          "name": "PositionIndex",
          "type": "uint256"
        },
        {
          "internalType": "uint256",
          "name": "USDC_Decimals",
          "type": "uint256"
        }
      ],
      "name": "redeem_ETHUP3X",
      "outputs": [
        {
          "internalType": "bool",
          "name": "",
          "type": "bool"
        }
      ],
      "stateMutability": "nonpayable",
      "type": "function"
    },
    {
      "inputs": [],
      "name": "renounceOwnership",
      "outputs": [],
      "stateMutability": "nonpayable",
      "type": "function"
    },
    {
      "inputs": [
        {
          "internalType": "address",
          "name": "bhai",
          "type": "address"
        }
      ],
      "name": "setPraxisERC20",
      "outputs": [],
      "stateMutability": "nonpayable",
      "type": "function"
    },
    {
      "inputs": [],
      "name": "swapRouter",
      "outputs": [
        {
          "internalType": "contract ISwapRouter",
          "name": "",
          "type": "address"
        }
      ],
      "stateMutability": "view",
      "type": "function"
    },
    {
      "inputs": [
        {
          "internalType": "address",
          "name": "newOwner",
          "type": "address"
        }
      ],
      "name": "transferOwnership",
      "outputs": [],
      "stateMutability": "nonpayable",
      "type": "function"
    },
    {
      "inputs": [
        {
          "internalType": "address",
          "name": "",
          "type": "address"
        },
        {
          "internalType": "uint256",
          "name": "",
          "type": "uint256"
        }
      ],
      "name": "user_to_ETH3XUP_positions",
      "outputs": [
        {
          "internalType": "address",
          "name": "owner",
          "type": "address"
        },
        {
          "internalType": "uint256",
          "name": "amountInEth",
          "type": "uint256"
        },
        {
          "internalType": "uint256",
          "name": "mintedTime",
          "type": "uint256"
        },
        {
          "internalType": "uint256",
          "name": "ethPrice",
          "type": "uint256"
        },
        {
          "internalType": "uint256",
          "name": "mintedTokens",
          "type": "uint256"
        },
        {
          "internalType": "bool",
          "name": "ifClosed",
          "type": "bool"
        },
        {
          "internalType": "uint256",
          "name": "positionValue",
          "type": "uint256"
        }
      ],
      "stateMutability": "view",
      "type": "function"
    },
    {
      "stateMutability": "payable",
      "type": "receive"
    }
  ],
  "bytecode": {
    "object": "0x60e0604052600180546001600160a01b031990811673f9680d99d6c9589e2a93a78a04a279e50920594517909155600280548216737ceb23fd6bc0add59e62ac25578270cff1b9f619179055600380548216732791bca1f2de4661ed88a30c99a7a9449aa841741790556004805490911673794a61358d6845594f94dc1db02a252b5b4814ad17905573e592427a0aece92de3edee1f18e0157c0586156460c052670de0b6b3a7640000600855348015620000b957600080fd5b50604051620021e4380380620021e4833981016040819052620000dc91620001cb565b80806001600160a01b03166080816001600160a01b031681525050806001600160a01b031663026b1d5f6040518163ffffffff1660e01b8152600401602060405180830381865afa15801562000136573d6000803e3d6000fd5b505050506040513d601f19601f820116820180604052508101906200015c9190620001cb565b6001600160a01b031660a0525062000174336200017b565b50620001fd565b600080546001600160a01b038381166001600160a01b0319831681178455604051919092169283917f8be0079c531659141344cd1fd0a4f28419497f9722a3daafe3b4186f6b6457e09190a35050565b600060208284031215620001de57600080fd5b81516001600160a01b0381168114620001f657600080fd5b9392505050565b60805160a05160c051611f9b62000249600039600081816104900152818161164f0152818161171a015261179a01526000818161037501526108e8015260006101d90152611f9b6000f3fe6080604052600436106101bb5760003560e01c806384c33450116100ec578063c31c9c071161008a578063e691c69a11610064578063e691c69a14610528578063e80011a814610548578063f24958061461057d578063f2fde38b1461059d57600080fd5b8063c31c9c071461047e578063c7cce372146104b2578063d907171f146104c757600080fd5b8063977706e8116100c6578063977706e814610409578063a37f11e81461041e578063a43852091461043e578063bc3e142c1461045e57600080fd5b806384c33450146103c15780638da5cb5b146103d65780638e15f473146103f457600080fd5b806324b1ea0711610159578063715018a611610133578063715018a61461034e5780637535d246146103635780637bfe6595146103975780637ec64d6c146103ac57600080fd5b806324b1ea07146102ec57806360342418146103015780636b95b4441461032e57600080fd5b8063089fe6aa11610195578063089fe6aa1461025257806312b0927f1461027c5780631a4fe8f01461029c5780631b11d0ff146102bc57600080fd5b80630542975c146101c757806305df571f1461021857806308674a5b1461023b57600080fd5b366101c257005b600080fd5b3480156101d357600080fd5b506101fb7f000000000000000000000000000000000000000000000000000000000000000081565b6040516001600160a01b0390911681526020015b60405180910390f35b34801561022457600080fd5b5061022d6105bd565b60405190815260200161020f565b34801561024757600080fd5b50610250610630565b005b34801561025e57600080fd5b50610268610bb881565b60405162ffffff909116815260200161020f565b34801561028857600080fd5b50610250610297366004611b28565b6106ba565b3480156102a857600080fd5b506102506102b7366004611b5d565b6107cb565b3480156102c857600080fd5b506102dc6102d7366004611b7f565b6107f5565b604051901515815260200161020f565b3480156102f857600080fd5b5061022d610979565b34801561030d57600080fd5b5061032161031c366004611b5d565b6109c3565b60405161020f9190611c25565b34801561033a57600080fd5b5061022d610349366004611b28565b610a86565b34801561035a57600080fd5b50610250610be3565b34801561036f57600080fd5b506101fb7f000000000000000000000000000000000000000000000000000000000000000081565b3480156103a357600080fd5b5061022d610bf7565b3480156103b857600080fd5b5061022d610c28565b3480156103cd57600080fd5b5061022d610c44565b3480156103e257600080fd5b506000546001600160a01b03166101fb565b34801561040057600080fd5b5061022d610cc2565b34801561041557600080fd5b5061022d610d47565b34801561042a57600080fd5b506003546101fb906001600160a01b031681565b34801561044a57600080fd5b506002546101fb906001600160a01b031681565b34801561046a57600080fd5b506004546101fb906001600160a01b031681565b34801561048a57600080fd5b506101fb7f000000000000000000000000000000000000000000000000000000000000000081565b3480156104be57600080fd5b50610250610dc5565b3480156104d357600080fd5b506104e76104e2366004611cb2565b610e0d565b604080516001600160a01b03909816885260208801969096529486019390935260608501919091526080840152151560a083015260c082015260e00161020f565b34801561053457600080fd5b506102dc610543366004611cdc565b610e77565b34801561055457600080fd5b50610568610563366004611b5d565b61137b565b6040805192835260208301919091520161020f565b34801561058957600080fd5b506005546101fb906001600160a01b031681565b3480156105a957600080fd5b506102506105b8366004611b5d565b611410565b600554604080516318160ddd60e01b815290516000926001600160a01b0316916318160ddd9160048083019260209291908290030181865afa158015610607573d6000803e3d6000fd5b505050506040513d601f19601f8201168201806040525081019061062b9190611d15565b905090565b610638611486565b6002546004805460405163095ea7b360e01b81526001600160a01b039182169281019290925260001960248301529091169063095ea7b3906044015b6020604051808303816000875af1158015610693573d6000803e3d6000fd5b505050506040513d601f19601f820116820180604052508101906106b79190611d2e565b50565b60006040518060e00160405280336001600160a01b031681526020018381526020014281526020016106ea610cc2565b815260006020808301829052604080840183905260609093018290523382526006815282822060079091529190205481549293508392811061072e5761072e611d50565b600091825260209182902083516007929092020180546001600160a01b0319166001600160a01b039283161781559183015160018301556040830151600280840191909155606084015160038401556080840151600484015560a084015160058401805460ff191691151591909117905560c09093015160069092019190915581546107c7929116906107c2908590611d7c565b6114e0565b5050565b6107d3611486565b600580546001600160a01b0319166001600160a01b0392909216919091179055565b3260009081526006602090815260408083206007909252822054815483929190811061082357610823611d50565b6000918252602080832060079283020160010154328452919052604082208054919350909161085183611d9b565b9091555061086b905030610866836003611d7c565b61156a565b6000610878826002611d7c565b610883906064611d7c565b9050610890606282611db4565b905061089c30826115e8565b6108c46108aa836002611d7c565b60035460025484916001600160a01b03908116911661163b565b5060006108d1888a611dd6565b60405163095ea7b360e01b81526001600160a01b037f00000000000000000000000000000000000000000000000000000000000000008116600483015260248201839052919250908b169063095ea7b3906044016020604051808303816000875af1158015610944573d6000803e3d6000fd5b505050506040513d601f19601f820116820180604052508101906109689190611d2e565b5060019a9950505050505050505050565b6003546040516370a0823160e01b81523060048201526000916001600160a01b0316906370a08231906024015b602060405180830381865afa158015610607573d6000803e3d6000fd5b6001600160a01b0381166000908152600660209081526040808320805482518185028101850190935280835260609492939192909184015b82821015610a7b5760008481526020908190206040805160e0810182526007860290920180546001600160a01b03168352600180820154848601526002820154928401929092526003810154606084015260048101546080840152600581015460ff16151560a08401526006015460c083015290835290920191016109fb565b505050509050919050565b600080600560009054906101000a90046001600160a01b03166001600160a01b03166318160ddd6040518163ffffffff1660e01b8152600401602060405180830381865afa158015610adc573d6000803e3d6000fd5b505050506040513d601f19601f82011682018060405250810190610b009190611d15565b90506000610b0c610d47565b9050610b1d816402540be400611d7c565b90506000610b29610c44565b9050610b3a816402540be400611d7c565b90506000610b46610cc2565b9050610b566305f5e10082611db4565b9050600084610b658486611dee565b610b6f9190611db4565b9050600082610b7f896003611d7c565b610b899190611d7c565b610b939086611dd6565b905082610ba1896002611d7c565b610bab9190611d7c565b610bb59085611dd6565b610bbf9082611dee565b9050610bcb8282611db4565b9050610bd78682611dee565b98975050505050505050565b610beb611486565b610bf560006117dd565b565b6002546040516370a0823160e01b81523060048201526000916001600160a01b0316906370a08231906024016109a6565b6000610c32610c44565b610c3a610d47565b61062b9190611dee565b60048054604051632fe4a15f60e21b8152309281019290925260009182916001600160a01b03169063bf92857c9060240160c060405180830381865afa158015610c92573d6000803e3d6000fd5b505050506040513d601f19601f82011682018060405250810190610cb69190611e05565b50929695505050505050565b600080600160009054906101000a90046001600160a01b03166001600160a01b031663feaf968c6040518163ffffffff1660e01b815260040160a060405180830381865afa158015610d18573d6000803e3d6000fd5b505050506040513d601f19601f82011682018060405250810190610d3c9190611e69565b509195945050505050565b60048054604051632fe4a15f60e21b8152309281019290925260009182916001600160a01b03169063bf92857c9060240160c060405180830381865afa158015610d95573d6000803e3d6000fd5b505050506040513d601f19601f82011682018060405250810190610db99190611e05565b50939695505050505050565b610dcd611486565b6003546004805460405163095ea7b360e01b81526001600160a01b039182169281019290925260001960248301529091169063095ea7b390604401610674565b60066020528160005260406000208181548110610e2957600080fd5b600091825260209091206007909102018054600182015460028301546003840154600485015460058601546006909601546001600160a01b0390951697509295509093909260ff9091169087565b6005546040516370a0823160e01b81526001600160a01b03868116600483015260009283929116906370a0823190602401602060405180830381865afa158015610ec5573d6000803e3d6000fd5b505050506040513d601f19601f82011682018060405250810190610ee99190611d15565b905080851115610f335760405162461bcd60e51b815260206004820152601060248201526f4e4f545f454e4f5547485f434f494e5360801b60448201526064015b60405180910390fd5b600554604080516318160ddd60e01b815290516000926001600160a01b0316916318160ddd9160048083019260209291908290030181865afa158015610f7d573d6000803e3d6000fd5b505050506040513d601f19601f82011682018060405250810190610fa19190611d15565b90506000610faf8288611db4565b90506000610fbb610cc2565b90506000610fc7610d47565b610fd19084611d7c565b9050610fdd8282611db4565b9050610ff181670de0b6b3a7640000611d7c565b90506000610ffd610c44565b6110079085611d7c565b90506110176305f5e10082611db4565b90506110238882611d7c565b60048054600254604051631a4ca37b60e21b81526001600160a01b03918216938101939093526024830186905233604484015292935091909116906369328dec906064016020604051808303816000875af1158015611086573d6000803e3d6000fd5b505050506040513d601f19601f820116820180604052508101906110aa9190611d15565b506002546003546110cb91839185916001600160a01b03908116911661163b565b506004805460035460405163573ade8160e01b81526001600160a01b03918216938101939093526024830184905260026044840152306064840152169063573ade81906084016020604051808303816000875af1158015611130573d6000803e3d6000fd5b505050506040513d601f19601f820116820180604052508101906111549190611d15565b506001600160a01b038b1660009081526006602052604090208054600191908b90811061118357611183611d50565b600091825260209091206007909102016005908101805460ff19169215159290921790915554604051632770a7eb60e21b81526001600160a01b038d81166004830152602482018d905290911690639dc29fac90604401600060405180830381600087803b1580156111f457600080fd5b505af1158015611208573d6000803e3d6000fd5b50506003546040516370a0823160e01b8152306004820152600093506001600160a01b0390911691506370a0823190602401602060405180830381865afa158015611257573d6000803e3d6000fd5b505050506040513d601f19601f8201168201806040525081019061127b9190611d15565b60035460405163a9059cbb60e01b81526001600160a01b038f81166004830152602482018490529293506000929091169063a9059cbb906044016020604051808303816000875af11580156112d4573d6000803e3d6000fd5b505050506040513d601f19601f820116820180604052508101906112f89190611d2e565b90508061130457600080fd5b600554604051632770a7eb60e21b81526001600160a01b038f81166004830152602482018f905290911690639dc29fac90604401600060405180830381600087803b15801561135257600080fd5b505af1158015611366573d6000803e3d6000fd5b50929f9e505050505050505050505050505050565b6001600160a01b0381166000908152600660209081526040808320600790925282205481548392919081106113b2576113b2611d50565b60009182526020808320600792830201600101546001600160a01b0387168452600682526040808520939092529220548154929450909181106113f7576113f7611d50565b9060005260206000209060070201600301549050915091565b611418611486565b6001600160a01b03811661147d5760405162461bcd60e51b815260206004820152602660248201527f4f776e61626c653a206e6577206f776e657220697320746865207a65726f206160448201526564647265737360d01b6064820152608401610f2a565b6106b7816117dd565b6000546001600160a01b03163314610bf55760405162461bcd60e51b815260206004820181905260248201527f4f776e61626c653a2063616c6c6572206973206e6f7420746865206f776e65726044820152606401610f2a565b6040805160208101825260008082526004805493516310ac2ddf60e21b8152309487948794909390926001600160a01b03909216916342b0b77c9161152f918991899189918991899101611ee9565b600060405180830381600087803b15801561154957600080fd5b505af115801561155d573d6000803e3d6000fd5b5050505050505050505050565b6004805460025460405163617ba03760e01b81526001600160a01b039182169381019390935260248301849052848116604484015260006064840152169063617ba037906084015b600060405180830381600087803b1580156115cc57600080fd5b505af11580156115e0573d6000803e3d6000fd5b505050505050565b6004805460035460405163a415bcad60e01b81526001600160a01b03918216938101939093526024830184905260006044840181905260648401528481166084840152169063a415bcad9060a4016115b2565b60006116498333308761182d565b611676837f000000000000000000000000000000000000000000000000000000000000000060001961192f565b60408051610100810182526001600160a01b03858116825284811660208301908152610bb88385019081523360608501908152426080860190815260a086018c815260c087018c8152600060e089019081529851631b67c43360e31b8152885188166004820152955187166024870152935162ffffff1660448601529151851660648501525160848401525160a48301525160c48201529251811660e484015290917f00000000000000000000000000000000000000000000000000000000000000009091169063db3e219890610104016020604051808303816000875af1158015611766573d6000803e3d6000fd5b505050506040513d601f19601f8201168201806040525081019061178a9190611d15565b9150848210156117d4576117c0847f0000000000000000000000000000000000000000000000000000000000000000600061192f565b6117d484336117cf8589611dee565b611a2f565b50949350505050565b600080546001600160a01b038381166001600160a01b0319831681178455604051919092169283917f8be0079c531659141344cd1fd0a4f28419497f9722a3daafe3b4186f6b6457e09190a35050565b604080516001600160a01b0385811660248301528481166044830152606480830185905283518084039091018152608490920183526020820180516001600160e01b03166323b872dd60e01b17905291516000928392908816916118919190611f49565b6000604051808303816000865af19150503d80600081146118ce576040519150601f19603f3d011682016040523d82523d6000602084013e6118d3565b606091505b50915091508180156118fd5750805115806118fd5750808060200190518101906118fd9190611d2e565b6115e05760405162461bcd60e51b815260206004820152600360248201526229aa2360e91b6044820152606401610f2a565b604080516001600160a01b038481166024830152604480830185905283518084039091018152606490920183526020820180516001600160e01b031663095ea7b360e01b179052915160009283929087169161198b9190611f49565b6000604051808303816000865af19150503d80600081146119c8576040519150601f19603f3d011682016040523d82523d6000602084013e6119cd565b606091505b50915091508180156119f75750805115806119f75750808060200190518101906119f79190611d2e565b611a285760405162461bcd60e51b8152602060048201526002602482015261534160f01b6044820152606401610f2a565b5050505050565b604080516001600160a01b038481166024830152604480830185905283518084039091018152606490920183526020820180516001600160e01b031663a9059cbb60e01b1790529151600092839290871691611a8b9190611f49565b6000604051808303816000865af19150503d8060008114611ac8576040519150601f19603f3d011682016040523d82523d6000602084013e611acd565b606091505b5091509150818015611af7575080511580611af7575080806020019051810190611af79190611d2e565b611a285760405162461bcd60e51b815260206004820152600260248201526114d560f21b6044820152606401610f2a565b600060208284031215611b3a57600080fd5b5035919050565b80356001600160a01b0381168114611b5857600080fd5b919050565b600060208284031215611b6f57600080fd5b611b7882611b41565b9392505050565b60008060008060008060a08789031215611b9857600080fd5b611ba187611b41565b95506020870135945060408701359350611bbd60608801611b41565b9250608087013567ffffffffffffffff80821115611bda57600080fd5b818901915089601f830112611bee57600080fd5b813581811115611bfd57600080fd5b8a6020828501011115611c0f57600080fd5b6020830194508093505050509295509295509295565b602080825282518282018190526000919060409081850190868401855b82811015611ca557815180516001600160a01b0316855286810151878601528581015186860152606080820151908601526080808201519086015260a08082015115159086015260c0908101519085015260e09093019290850190600101611c42565b5091979650505050505050565b60008060408385031215611cc557600080fd5b611cce83611b41565b946020939093013593505050565b60008060008060808587031215611cf257600080fd5b611cfb85611b41565b966020860135965060408601359560600135945092505050565b600060208284031215611d2757600080fd5b5051919050565b600060208284031215611d4057600080fd5b81518015158114611b7857600080fd5b634e487b7160e01b600052603260045260246000fd5b634e487b7160e01b600052601160045260246000fd5b6000816000190483118215151615611d9657611d96611d66565b500290565b600060018201611dad57611dad611d66565b5060010190565b600082611dd157634e487b7160e01b600052601260045260246000fd5b500490565b60008219821115611de957611de9611d66565b500190565b600082821015611e0057611e00611d66565b500390565b60008060008060008060c08789031215611e1e57600080fd5b865195506020870151945060408701519350606087015192506080870151915060a087015190509295509295509295565b805169ffffffffffffffffffff81168114611b5857600080fd5b600080600080600060a08688031215611e8157600080fd5b611e8a86611e4f565b9450602086015193506040860151925060608601519150611ead60808701611e4f565b90509295509295909350565b60005b83811015611ed4578181015183820152602001611ebc565b83811115611ee3576000848401525b50505050565b600060018060a01b03808816835280871660208401525084604083015260a0606083015283518060a0840152611f268160c0850160208801611eb9565b61ffff93909316608083015250601f91909101601f19160160c001949350505050565b60008251611f5b818460208701611eb9565b919091019291505056fea2646970667358221220a3dbb140e4172736dbba25c1e88ce191bb3fe65edfdbd3d66d731dfd8adf4a9064736f6c634300080f0033",
    "linkReferences": {}
  },
  "methodIdentifiers": {
    "AAVE_POOL_POLYGON()": "bc3e142c",
    "ADDRESSES_PROVIDER()": "0542975c",
    "CALCULATE_TOKENS_TO_MINT(uint256)": "6b95b444",
    "ERC20_TO_BORROW_POLYGON()": "a37f11e8",
    "ERC20_TO_DEPOSIT_POLYGON()": "a4385209",
    "POOL()": "7535d246",
    "PRAXIS_ERC20()": "f2495806",
    "executeOperation(address,uint256,uint256,address,bytes)": "1b11d0ff",
    "getLatestPrice()": "8e15f473",
    "get_CONTRACT_USDC_POSITION()": "84c33450",
    "get_CONTRACT_VALUE()": "7ec64d6c",
    "get_CONTRACT_WETH_POSITION()": "977706e8",
    "get_ETH3XUP_Positions(address)": "60342418",
    "get_USDC_contract_balance()": "24b1ea07",
    "get_WETH_contract_balance()": "7bfe6595",
    "get_current_Params(address)": "e80011a8",
    "gettotalSupply()": "05df571f",
    "give_Allowance_USDC()": "c7cce372",
    "give_Allowance_WETH()": "08674a5b",
    "initiate_ETH3XUP(uint256)": "12b0927f",
    "owner()": "8da5cb5b",
    "poolFee()": "089fe6aa",
    "redeem_ETHUP3X(address,uint256,uint256,uint256)": "e691c69a",
    "renounceOwnership()": "715018a6",
    "setPraxisERC20(address)": "1a4fe8f0",
    "swapRouter()": "c31c9c07",
    "transferOwnership(address)": "f2fde38b",
    "user_to_ETH3XUP_positions(address,uint256)": "d907171f"
  },
  "id": 9
}