{
  "abi": [
    {
      "inputs": [
        {
          "internalType": "address",
          "name": "_addressProvider",
          "type": "address"
        }
      ],
      "stateMutability": "nonpayable",
      "type": "constructor"
    },
    {
      "inputs": [],
      "name": "ADDRESSES_PROVIDER",
      "outputs": [
        {
          "internalType": "contract IPoolAddressesProvider",
          "name": "",
          "type": "address"
        }
      ],
      "stateMutability": "view",
      "type": "function"
    },
    {
      "inputs": [],
      "name": "POOL",
      "outputs": [
        {
          "internalType": "contract IPool",
          "name": "",
          "type": "address"
        }
      ],
      "stateMutability": "view",
      "type": "function"
    },
    {
      "inputs": [
        {
          "internalType": "address",
          "name": "asset",
          "type": "address"
        },
        {
          "internalType": "uint256",
          "name": "amount",
          "type": "uint256"
        },
        {
          "internalType": "uint256",
          "name": "premium",
          "type": "uint256"
        },
        {
          "internalType": "address",
          "name": "initiator",
          "type": "address"
        },
        {
          "internalType": "bytes",
          "name": "params",
          "type": "bytes"
        }
      ],
      "name": "executeOperation",
      "outputs": [
        {
          "internalType": "bool",
          "name": "",
          "type": "bool"
        }
      ],
      "stateMutability": "nonpayable",
      "type": "function"
    },
    {
      "inputs": [
        {
          "internalType": "address",
          "name": "_tokenAddress",
          "type": "address"
        }
      ],
      "name": "getBalance",
      "outputs": [
        {
          "internalType": "uint256",
          "name": "",
          "type": "uint256"
        }
      ],
      "stateMutability": "view",
      "type": "function"
    },
    {
      "inputs": [
        {
          "internalType": "address",
          "name": "_tokenAddress",
          "type": "address"
        }
      ],
      "name": "withdraw",
      "outputs": [],
      "stateMutability": "nonpayable",
      "type": "function"
    },
    {
      "stateMutability": "payable",
      "type": "receive"
    }
  ],
  "bytecode": {
    "object": "0x60c060405234801561001057600080fd5b5060405161068738038061068783398101604081905261002f916100d1565b80806001600160a01b03166080816001600160a01b031681525050806001600160a01b031663026b1d5f6040518163ffffffff1660e01b8152600401602060405180830381865afa158015610088573d6000803e3d6000fd5b505050506040513d601f19601f820116820180604052508101906100ac91906100d1565b6001600160a01b031660a0525050600080546001600160a01b03191633179055610101565b6000602082840312156100e357600080fd5b81516001600160a01b03811681146100fa57600080fd5b9392505050565b60805160a05161055b61012c6000396000818161010f015261018301526000606c015261055b6000f3fe60806040526004361061004e5760003560e01c80630542975c1461005a5780631b11d0ff146100ab57806351cff8d9146100db5780637535d246146100fd578063f8b2cb4f1461013157600080fd5b3661005557005b600080fd5b34801561006657600080fd5b5061008e7f000000000000000000000000000000000000000000000000000000000000000081565b6040516001600160a01b0390911681526020015b60405180910390f35b3480156100b757600080fd5b506100cb6100c63660046103fc565b61015f565b60405190151581526020016100a2565b3480156100e757600080fd5b506100fb6100f63660046104a2565b610212565b005b34801561010957600080fd5b5061008e7f000000000000000000000000000000000000000000000000000000000000000081565b34801561013d57600080fd5b5061015161014c3660046104a2565b61036f565b6040519081526020016100a2565b60008061016c86886104c4565b60405163095ea7b360e01b81526001600160a01b037f000000000000000000000000000000000000000000000000000000000000000081166004830152602482018390529192509089169063095ea7b3906044016020604051808303816000875af11580156101df573d6000803e3d6000fd5b505050506040513d601f19601f8201168201806040525081019061020391906104ea565b50600198975050505050505050565b6000546001600160a01b031633146102875760405162461bcd60e51b815260206004820152602e60248201527f4f6e6c792074686520636f6e7472616374206f776e65722063616e2063616c6c60448201526d103a3434b990333ab731ba34b7b760911b606482015260840160405180910390fd5b6040516370a0823160e01b815230600482015281906001600160a01b0382169063a9059cbb90339083906370a0823190602401602060405180830381865afa1580156102d7573d6000803e3d6000fd5b505050506040513d601f19601f820116820180604052508101906102fb919061050c565b6040516001600160e01b031960e085901b1681526001600160a01b03909216600483015260248201526044016020604051808303816000875af1158015610346573d6000803e3d6000fd5b505050506040513d601f19601f8201168201806040525081019061036a91906104ea565b505050565b6040516370a0823160e01b81523060048201526000906001600160a01b038316906370a0823190602401602060405180830381865afa1580156103b6573d6000803e3d6000fd5b505050506040513d601f19601f820116820180604052508101906103da919061050c565b92915050565b80356001600160a01b03811681146103f757600080fd5b919050565b60008060008060008060a0878903121561041557600080fd5b61041e876103e0565b9550602087013594506040870135935061043a606088016103e0565b9250608087013567ffffffffffffffff8082111561045757600080fd5b818901915089601f83011261046b57600080fd5b81358181111561047a57600080fd5b8a602082850101111561048c57600080fd5b6020830194508093505050509295509295509295565b6000602082840312156104b457600080fd5b6104bd826103e0565b9392505050565b600082198211156104e557634e487b7160e01b600052601160045260246000fd5b500190565b6000602082840312156104fc57600080fd5b815180151581146104bd57600080fd5b60006020828403121561051e57600080fd5b505191905056fea2646970667358221220aae6969962cac6f0bb23e01bc074e4b3c24fb5f8031b95cccd657b8566f1e0ea64736f6c634300080f0033",
    "linkReferences": {}
  },
  "methodIdentifiers": {
    "ADDRESSES_PROVIDER()": "0542975c",
    "POOL()": "7535d246",
    "executeOperation(address,uint256,uint256,address,bytes)": "1b11d0ff",
    "getBalance(address)": "f8b2cb4f",
    "withdraw(address)": "51cff8d9"
  },
  "id": 23
}