{
  "abi": [
    {
      "inputs": [
        {
          "internalType": "address",
          "name": "_WETHCHAINLINK",
          "type": "address"
        }
      ],
      "stateMutability": "nonpayable",
      "type": "constructor"
    },
    {
      "inputs": [],
      "name": "getLatestPrice",
      "outputs": [
        {
          "internalType": "int256",
          "name": "",
          "type": "int256"
        }
      ],
      "stateMutability": "view",
      "type": "function"
    },
    {
      "inputs": [
        {
          "internalType": "uint256",
          "name": "amount",
          "type": "uint256"
        }
      ],
      "name": "requestWETH",
      "outputs": [],
      "stateMutability": "nonpayable",
      "type": "function"
    }
  ],
  "bytecode": {
    "object": "0x608060405234801561001057600080fd5b5060405161032c38038061032c83398101604081905261002f91610054565b600080546001600160a01b0319166001600160a01b0392909216919091179055610084565b60006020828403121561006657600080fd5b81516001600160a01b038116811461007d57600080fd5b9392505050565b610299806100936000396000f3fe608060405234801561001057600080fd5b50600436106100365760003560e01c8063574ac9fa1461003b5780638e15f47314610050575b600080fd5b61004e610049366004610190565b61006a565b005b610058610117565b60405190815260200160405180910390f35b6000610074610117565b90506100846305f5e100826101a9565b9050600061009282846101a9565b60405163a9059cbb60e01b815233600482015260248101829052909150732e3a2fb8473316a02b8a297b982498e661e1f6f59063a9059cbb906044016020604051808303816000875af11580156100ed573d6000803e3d6000fd5b505050506040513d601f19601f8201168201806040525081019061011191906101cb565b50505050565b6000805460408051633fabe5a360e21b8152905183926001600160a01b03169163feaf968c9160048083019260a09291908290030181865afa158015610161573d6000803e3d6000fd5b505050506040513d601f19601f820116820180604052508101906101859190610213565b509195945050505050565b6000602082840312156101a257600080fd5b5035919050565b6000826101c657634e487b7160e01b600052601260045260246000fd5b500490565b6000602082840312156101dd57600080fd5b815180151581146101ed57600080fd5b9392505050565b805169ffffffffffffffffffff8116811461020e57600080fd5b919050565b600080600080600060a0868803121561022b57600080fd5b610234866101f4565b9450602086015193506040860151925060608601519150610257608087016101f4565b9050929550929590935056fea264697066735822122090e9fe6c2cb9e9bec717872af3bedd44b4e119f45144de515a3f0d3b8b1e611064736f6c634300080f0033",
    "linkReferences": {}
  },
  "methodIdentifiers": {
    "getLatestPrice()": "8e15f473",
    "requestWETH(uint256)": "574ac9fa"
  },
  "id": 8
}